:100000000C9446000C9465000C9465000C946500FB
:100010000C9465000C9465000C9465000C946500CC
:100020000C9465000C9465000C9465000C946500BC
:100030000C94B11C0C9465000C9465000C94650044
:100040000C9465000C9465000C9465000C9465009C
:100050000C9465000C9465000C9465000C9465008C
:100060000C9465000C9465000C9465000C9465007C
:100070000C9465000C9465000C9465000C9465006C
:100080000C9465000C9465000C94650011241FBE4F
:10009000CFEFD0E1DEBFCDBF11E0A0E0B1E0E4E8FA
:1000A000FDE500E00BBF02C007900D92A031B10743
:1000B000D9F713E0A0E1B1E001C01D92A63FB1075E
:1000C000E1F70E94D4190C94C02E0C940000EF921A
:1000D000FF920F931F93DF93CF93CDB7DEB7609757
:1000E0000FB6F894DEBF0FBECDBF988B8F878F857C
:1000F00098899E878D878D859E85FC01E458FF4FEA
:1001000080819181A281B381ED85FE8524AD35ADDD
:1001100046AD57ADBC01CD010E944F2CDC01CB0197
:1001200089879A87AB87BC878D859E85FC01E058BF
:10013000FF4FE080F180028113818D859E85FC0157
:10014000E05CFF4F2081318142815381C801B701BA
:100150000E944F2CDC01CB018D839E83AF83B88737
:100160008D859E85FC01EC57FF4FE080F180028178
:1001700013818D859E85FC01EC5BFF4F20813181D1
:1001800042815381C801B7010E944F2CDC01CB0191
:1001900089839A83AB83BC8380910501882F90E08B
:1001A000AA2797FDA095BA2FBC01CD010E944E2D24
:1001B000DC01CB01BC01CD0129853A854B855C85ED
:1001C0000E94022EDC01CB019C01AD018D859E8534
:1001D000FC01E85BFF4F208331834283538380918E
:1001E0000501882F90E0AA2797FDA095BA2FBC01A2
:1001F000CD010E944E2DDC01CB01BC01CD012D8132
:100200003E814F8158850E94022EDC01CB019C016A
:10021000AD018D859E85FC01E45BFF4F208331831A
:100220004283538380910501882F90E0AA2797FD90
:10023000A095BA2FBC01CD010E944E2DDC01CB014F
:10024000BC01CD0129813A814B815C810E94022E43
:10025000DC01CB019C01AD018D859E85FC01E05B3D
:10026000FF4F208331834283538380910601882F7F
:1002700090E0AA2797FDA095BA2FBC01CD010E945E
:100280004E2D7B018C018D859E85FC01E85BFF4F27
:100290002081318142815381C801B7010E94022E21
:1002A000DC01CB019C01AD018D859E85FC01E457ED
:1002B000FF4F208331834283538380910701882F2E
:1002C00090E0AA2797FDA095BA2FBC01CD010E940E
:1002D0004E2D7B018C018D859E85FC01E45BFF4FDB
:1002E0002081318142815381C801B7010E94022ED1
:1002F000DC01CB019C01AD018D859E85FC01E057A1
:10030000FF4F208331834283538380910801882FDC
:1003100090E0AA2797FDA095BA2FBC01CD010E94BD
:100320004E2D7B018C018D859E85FC01E05BFF4F8E
:100330002081318142815381C801B7010E94022E80
:10034000DC01CB019C01AD018D859E85FC01EC5645
:10035000FF4F208331834283538381E090E00E94EA
:100360002827C9CEAF92BF92CF92DF92EF92FF9231
:100370000F931F93DF93CF93CDB7DEB7C054D04018
:100380000FB6F894DEBF0FBECDBFFE01FF9691837E
:100390008083FE01FF96808191819EAF8DAF8FE6B5
:1003A00092E1A3E8BAE389AF9AAFABAFBCAF80915B
:1003B0000A01282F30E081E090E0B9010E94712EFF
:1003C000CB01AA2797FDA095BA2FBC01CD010E94B1
:1003D0004E2DDC01CB018DA79EA7AFA7B8AB80E067
:1003E00090E0A0E8BFE389A79AA7ABA7BCA7EDADB3
:1003F000FEAD84A195A1A6A1B7A1BC01CD010E942B
:10040000FC217B018C01EDADFEAD80A591A5A2A5DF
:10041000B3A5BC01CD010E94FC219B01AC01C80128
:10042000B7010E94022EDC01CB017C018D01EDADF4
:10043000FEAD80A591A5A2A5B3A5BC01CD010E94EA
:10044000D5229B01AC01C801B7010E94B82CDC0188
:10045000CB018DA39EA3AFA3B8A7EDADFEAD84A144
:1004600095A1A6A1B7A1BC01CD010E94D5227B0117
:100470008C01EDADFEAD80A591A5A2A5B3A5BC01F3
:10048000CD010E94FC219B01AC01C801B7010E9473
:10049000022EDC01CB017C018D01EDADFEAD80A50E
:1004A00091A5A2A5B3A5BC01CD010E94D5229B01B7
:1004B000AC01C801B7010E94B82CDC01CB0189A3B3
:1004C0009AA3ABA3BCA380E090E0A0E0B0E08D8F46
:1004D0009E8FAF8FB8A3EDADFEAD84A195A1A6A16F
:1004E000B7A1BC01CD010E94D522DC01CB01898FCF
:1004F0009A8FAB8FBC8FEDADFEAD84A195A1A6A167
:10050000B7A1BC01CD010E94FC21DC01CB01B05898
:100510008D8B9E8BAF8BB88F80E090E0A0E0B0E039
:10052000898B9A8BAB8BBC8BEDADFEAD84A195A175
:10053000A6A1B7A1BC01CD010E94FC217B018C01C9
:10054000EDADFEAD80A591A5A2A5B3A5BC01CD01E1
:100550000E94D5229B01AC01C801B7010E94B82CB2
:10056000DC01CB018D879E87AF87B88BEDADFEADEB
:1005700084A195A1A6A1B7A1BC01CD010E94D5225D
:100580007B018C01EDADFEAD80A591A5A2A5B3A523
:10059000BC01CD010E94D5229B01AC01C801B7016D
:1005A0000E94B82CDC01CB0189879A87AB87BC8776
:1005B0008DAD9EADFC01E459FF4FE080F1800281DA
:1005C000138180910901882F90E0AA2797FDA095BB
:1005D000BA2FBC01CD010E944E2D9B01AC01C80178
:1005E000B7010E94022EDC01CB017C018D018DAD93
:1005F0009EADFC01E857FF4F20813181428153813C
:10060000C801B7010E94B82CDC01CB018D839E8309
:10061000AF83B8878DAD9EADFC01E059FF4FE08000
:10062000F1800281138180910901882F90E0AA272F
:1006300097FDA095BA2FBC01CD010E944E2D9B01C4
:10064000AC01C801B7010E94022EDC01CB017C0184
:100650008D018DAD9EADFC01E857FF4F20813181AA
:1006600042815381C801B7010E94B82CDC01CB0143
:1006700089839A83AB83BC8369A17AA18BA19CA156
:100680002D813E814F8158850E944F2CDC01CB018A
:10069000BC01CD012DA53EA54FA558A90E94B82C9F
:1006A000DC01CB018DAB9EABAFABB8AF6D897E8962
:1006B0008F89988D29813A814B815C810E944F2CD2
:1006C000DC01CB01BC01CD012DA53EA54FA558A94C
:1006D0000E94B82CDC01CB0189AB9AABABABBCABB5
:1006E00060E070E080E89FE329853A854B855C8572
:1006F0000E94B82CDC01CB015C016D016D8D7E8DFB
:100700008F8D98A12DA93EA94FA958AD0E94022E08
:10071000DC01CB017C018D0169A57AA58BA59CA587
:1007200029A93AA94BA95CA90E94022EDC01CB01A0
:100730009C01AD01C801B7010E944F2CDC01CB0127
:100740009C01AD01C601B5010E94022EDC01CB0166
:100750009C01AD018DAD9EADFC01E458FF4F20839F
:1007600031834283538360E070E080E89FE3298512
:100770003A854B855C850E94B82CDC01CB015C017D
:100780006D01698D7A8D8B8D9C8D2DA93EA94FA908
:1007900058AD0E94022EDC01CB017C018D016DA1C0
:1007A0007EA18FA198A529A93AA94BA95CA90E946D
:1007B000022EDC01CB019C01AD01C801B7010E94F2
:1007C0004F2CDC01CB019C01AD01C601B5010E949B
:1007D000022EDC01CB019C01AD018DAD9EADFC0173
:1007E000E058FF4F208331834283538381E090E0C0
:1007F0000E942827D4CDEF92FF920F931F93DF938F
:10080000CF9300D000D0CDB7DEB79C838B838B8194
:100810009C819A83898380910501882F90E0AA2783
:1008200097FDA095BA2FBC01CD010E944E2D7B01F2
:100830008C0189819A81FC01E858FF4F8081918168
:10084000A281B381E981FA8124A535A546A557A5E2
:10085000BC01CD010E944F2CDC01CB019C01AD01FC
:10086000C801B7010E94022EDC01CB019C01AD0141
:1008700089819A81FC01EC57FF4F208331834283A9
:10088000538384E690E00E942827C5CFAF92BF92A1
:10089000CF92DF92EF92FF920F931F93DF93CF934C
:1008A000CDB7DEB728970FB6F894DEBF0FBECDBF29
:1008B00098878F838F8198859E838D83ED81FE81BC
:1008C00084A195A1A6A1B7A1BC01CD010E94D5220A
:1008D0007B018C01ED81FE8180A591A5A2A5B3A528
:1008E000BC01CD010E94D5229B01AC01C801B7011A
:1008F0000E94B82CDC01CB0189839A83AB83BC8333
:1009000080910501882F90E0AA2797FDA095BA2F26
:10091000BC01CD010E944E2D7B018C018D819E81F9
:10092000FC01E45AFF4F80819181A281B381ED8166
:10093000FE812085318542855385BC01CD010E9411
:100940004F2CDC01CB019C01AD01C801B7010E9415
:10095000022EDC01CB015C016D018091F503882F33
:1009600090E0AA2797FDA095BA2FBC01CD010E9467
:100970004E2D7B018C018D819E81FC01E859FF4F3A
:1009800080819181A281B381ED81FE8124893589A5
:1009900046895789BC01CD010E944F2CDC01CB0157
:1009A0009C01AD01C801B7010E94022EDC01CB0100
:1009B0009C01AD01C601B5010E94502CDC01CB01A8
:1009C0009C01AD018D819E81FC01EC58FF4F20837D
:1009D00031834283538380910901882F90E0AA27B5
:1009E00097FDA095BA2FBC01CD010E944E2D5B0151
:1009F0006C018D819E81FC01EC58FF4FE080F180FD
:100A00000281138180910B01882F90E0AA2797FD26
:100A1000A095BA2FBC01CD010E944E2D9B01AC01C7
:100A2000C801B7010E944F2CDC01CB019C01AD0134
:100A3000C601B5010E94022EDC01CB01BC01CD0133
:100A400029813A814B815C810E94B82CDC01CB0169
:100A50009C01AD018D819E81FC01E857FF4F2083F1
:100A600031834283538384E690E00E94282726CF77
:100A7000AF92BF92CF92DF92EF92FF920F931F93AC
:100A8000DF93CF9300D000D0CDB7DEB79C838B83AC
:100A90008B819C819A83898380910501882F90E0C6
:100AA000AA2797FDA095BA2FBC01CD010E944E2D1B
:100AB0007B018C0189819A81FC01EC5AFF4F808176
:100AC0009181A281B381E981FA81208531854285B6
:100AD0005385BC01CD010E944F2CDC01CB019C0150
:100AE000AD01C801B7010E94022EDC01CB015C01FF
:100AF0006D018091F503882F90E0AA2797FDA095BE
:100B0000BA2FBC01CD010E944E2D7B018C01898141
:100B10009A81FC01E05AFF4F80819181A281B381CB
:100B2000E981FA812485358546855785BC01CD014B
:100B30000E944F2CDC01CB019C01AD01C801B70123
:100B40000E94022EDC01CB019C01AD01C601B50162
:100B50000E94502CDC01CB019C01AD0189819A815E
:100B6000FC01E459FF4F20833183428353838091FA
:100B70000501882F90E0AA2797FDA095BA2FBC0108
:100B8000CD010E944E2D7B018C0189819A81FC014F
:100B9000E85AFF4F80819181A281B381E981FA8176
:100BA0002085318542855385BC01CD010E944F2CA3
:100BB000DC01CB019C01AD01C801B7010E94022EEE
:100BC000DC01CB015C016D018091F503882F90E081
:100BD000AA2797FDA095BA2FBC01CD010E944E2DEA
:100BE0007B018C0189819A81FC01EC59FF4F808146
:100BF0009181A281B381E981FA8120893189428979
:100C00005389BC01CD010E944F2CDC01CB019C011A
:100C1000AD01C801B7010E94022EDC01CB019C018D
:100C2000AD01C601B5010E94502CDC01CB019C0135
:100C3000AD0189819A81FC01E059FF4F2083318306
:100C40004283538384E690E00E94282725CFDF93D8
:100C5000CF9300D000D00F92CDB7DEB78A836B83DD
:100C60008A8186958695869589838981282F30E0AB
:100C70003D832C838C819D818330910509F4BFC015
:100C80002C813D81243031058CF48C819D81813013
:100C9000910509F450C02C813D81223031050CF0C2
:100CA0007CC08C819D810097A1F070C12C813D8119
:100CB0002530310509F407C18C819D81853091056E
:100CC0000CF4CFC02C813D812630310509F42DC1B3
:100CD0005DC18B818823B9F0AAE3B0E0EAE3F0E0DC
:100CE0008081482F8A81882F90E09C012770307086
:100CF00081E090E0022E02C0880F991F0A94E2F76B
:100D0000842B8C9343C1AAE3B0E0EAE3F0E0808156
:100D1000482F8A81882F90E09C012770307081E0F5
:100D200090E0022E02C0880F991F0A94E2F7809586
:100D300084238C932BC18B818823B9F0A7E3B0E087
:100D4000E7E3F0E08081482F8A81882F90E09C01C2
:100D50002770307081E090E0022E02C0880F991F4A
:100D60000A94E2F7842B8C9311C1A7E3B0E0E7E388
:100D7000F0E08081482F8A81882F90E09C012770C5
:100D8000307081E090E0022E02C0880F991F0A9413
:100D9000E2F7809584238C93F9C08B818823B9F086
:100DA000A4E3B0E0E4E3F0E08081482F8A81882F5B
:100DB00090E09C012770307081E090E0022E02C02C
:100DC000880F991F0A94E2F7842B8C93DFC0A4E369
:100DD000B0E0E4E3F0E08081482F8A81882F90E042
:100DE0009C012770307081E090E0022E02C0880FD5
:100DF000991F0A94E2F7809584238C93C7C08B8156
:100E00008823B9F0A1E3B0E0E1E3F0E08081482F6E
:100E10008A81882F90E09C012770307081E090E0FB
:100E2000022E02C0880F991F0A94E2F7842B8C933C
:100E3000ADC0A1E3B0E0E1E3F0E08081482F8A811A
:100E4000882F90E09C012770307081E090E0022EA6
:100E500002C0880F991F0A94E2F7809584238C932F
:100E600095C08B818823B9F0A2E2B0E0E2E2F0E025
:100E70008081482F8A81882F90E09C0127703070F4
:100E800081E090E0022E02C0880F991F0A94E2F7D9
:100E9000842B8C937BC0A2E2B0E0E2E2F0E08081A0
:100EA000482F8A81882F90E09C012770307081E064
:100EB00090E0022E02C0880F991F0A94E2F78095F5
:100EC00084238C9363C08B818823B9F0A1E6B0E0C2
:100ED000E1E6F0E08081482F8A81882F90E09C0134
:100EE0002770307081E090E0022E02C0880F991FB9
:100EF0000A94E2F7842B8C9349C0A1E6B0E0E1E6C6
:100F0000F0E08081482F8A81882F90E09C01277033
:100F1000307081E090E0022E02C0880F991F0A9481
:100F2000E2F7809584238C9331C08B818823B9F0BC
:100F3000A4E6B0E0E4E6F0E08081482F8A81882FC3
:100F400090E09C012770307081E090E0022E02C09A
:100F5000880F991F0A94E2F7842B8C9317C0A4E69C
:100F6000B0E0E4E6F0E08081482F8A81882F90E0AD
:100F70009C012770307081E090E0022E02C0880F43
:100F8000991F0A94E2F7809584238C930F900F9019
:100F90000F900F900F90CF91DF910895DF93CF9333
:100FA00000D000D00F92CDB7DEB78A836B838A81E1
:100FB00086958695869589838981282F30E03D83A3
:100FC0002C838C819D818330910509F4BFC02C81D5
:100FD0003D81243031058CF48C819D8181309105D7
:100FE00009F450C02C813D81223031050CF07CC0C9
:100FF0008C819D810097A1F070C12C813D812530AD
:10100000310509F407C18C819D81853091050CF46F
:10101000CFC02C813D812630310509F42DC15DC141
:101020008B818823B9F0ABE3B0E0EBE3F0E08081A3
:10103000482F8A81882F90E09C012770307081E0D2
:1010400090E0022E02C0880F991F0A94E2F7842BC9
:101050008C9343C1ABE3B0E0EBE3F0E08081482F39
:101060008A81882F90E09C012770307081E090E0A9
:10107000022E02C0880F991F0A94E2F780958423FC
:101080008C932BC18B818823B9F0A8E3B0E0E8E30F
:10109000F0E08081482F8A81882F90E09C012770A2
:1010A000307081E090E0022E02C0880F991F0A94F0
:1010B000E2F7842B8C9311C1A8E3B0E0E8E3F0E001
:1010C0008081482F8A81882F90E09C0127703070A2
:1010D00081E090E0022E02C0880F991F0A94E2F787
:1010E000809584238C93F9C08B818823B9F0A5E384
:1010F000B0E0E5E3F0E08081482F8A81882F90E01E
:101100009C012770307081E090E0022E02C0880FB1
:10111000991F0A94E2F7842B8C93DFC0A5E3B0E01B
:10112000E5E3F0E08081482F8A81882F90E09C01E0
:101130002770307081E090E0022E02C0880F991F66
:101140000A94E2F7809584238C93C7C08B8188230F
:10115000B9F0A2E3B0E0E2E3F0E08081482F8A81B9
:10116000882F90E09C012770307081E090E0022E83
:1011700002C0880F991F0A94E2F7842B8C93ADC0AC
:10118000A2E3B0E0E2E3F0E08081482F8A81882F7B
:1011900090E09C012770307081E090E0022E02C048
:1011A000880F991F0A94E2F7809584238C9395C049
:1011B0008B818823B9F0AEE2B0E0EEE2F0E080810E
:1011C000482F8A81882F90E09C012770307081E041
:1011D00090E0022E02C0880F991F0A94E2F7842B38
:1011E0008C937BC0AEE2B0E0EEE2F0E08081482F6D
:1011F0008A81882F90E09C012770307081E090E018
:10120000022E02C0880F991F0A94E2F7809584236A
:101210008C9363C08B818823B9F0A2E6B0E0E2E64C
:10122000F0E08081482F8A81882F90E09C01277010
:10123000307081E090E0022E02C0880F991F0A945E
:10124000E2F7842B8C9349C0A2E6B0E0E2E6F0E03E
:101250008081482F8A81882F90E09C012770307010
:1012600081E090E0022E02C0880F991F0A94E2F7F5
:10127000809584238C9331C08B818823B9F0A5E6B7
:10128000B0E0E5E6F0E08081482F8A81882F90E089
:101290009C012770307081E090E0022E02C0880F20
:1012A000991F0A94E2F7842B8C9317C0A5E6B0E04F
:1012B000E5E6F0E08081482F8A81882F90E09C014C
:1012C0002770307081E090E0022E02C0880F991FD5
:1012D0000A94E2F7809584238C930F900F900F90DF
:1012E0000F900F90CF91DF910895DF93CF9300D0AF
:1012F00000D000D0CDB7DEB78A838A8186958695E7
:10130000869589838981282F30E03D832C834C8109
:101310005D814330510509F467C08C819D81843023
:10132000910584F42C813D812130310599F14C8166
:101330005D81423051050CF042C08C819D81009747
:10134000A1F0A6C02C813D812530310509F476C07D
:101350004C815D81453051050CF45BC08C819D81D1
:101360008630910509F47FC093C0E9E3F0E0808105
:10137000282F30E08A81882F90E087709070A90133
:1013800002C0559547958A95E2F7CA01582F5170CA
:101390005B837FC0E6E3F0E08081282F30E08A8124
:1013A000882F90E087709070A90102C055954795ED
:1013B0008A95E2F7CA01582F51705B836AC0E3E354
:1013C000F0E08081282F30E08A81882F90E08770BC
:1013D0009070A90102C0559547958A95E2F7CA0118
:1013E000582F51705B8355C0E0E3F0E08081282FD7
:1013F00030E08A81882F90E087709070A90102C048
:10140000559547958A95E2F7CA01582F51705B832D
:1014100040C0E3E2F0E08081282F30E08A81882F0D
:1014200090E087709070A90102C0559547958A9504
:10143000E2F7CA01582F51705B832BC0E0E2F0E065
:101440008081282F30E08A81882F90E0877090700B
:10145000A90102C0559547958A95E2F7CA01582F10
:1014600051705B8316C0E3E6F0E08081282F30E006
:101470008A81882F90E087709070A90102C05595ED
:1014800047958A95E2F7CA01582F51705B8301C0D6
:1014900002C08B818E838E8126960FB6F894DEBFB4
:1014A0000FBECDBFCF91DF910895DF93CF93CDB71E
:1014B000DEB780ED0E941B1889E10E945B1880E076
:1014C0000E945B180E947B1880ED0E941B188AE125
:1014D0000E945B1880E00E945B180E947B1880EDE0
:1014E0000E941B188BE10E945B1888E10E945B1828
:1014F0000E947B1880ED0E941B188CE10E945B18F3
:1015000088E10E945B180E947B1880ED0E941B18E6
:101510008BE60E945B1881E00E945B180E947B189A
:1015200080ED0E941B1888E30E945B1881E00E94F6
:101530005B180E947B18CF91DF9108950F931F9342
:10154000DF93CF93CDB7DEB728970FB6F894DEBF01
:101550000FBECDBF9E838D8378876F8380ED0E9401
:101560001B188BE30E945B1881ED0E941B180E94E0
:101570008618882F90E0182F00270E948618882F41
:1015800090E0802B912BCC01A0E0B0E0BC01CD011C
:101590000E944C2DDC01CB01ED81FE818083918383
:1015A000A283B3830E948618882F90E0182F00270B
:1015B0000E948618882F90E0802B912BCC01A0E010
:1015C000B0E0BC01CD010E944C2DDC01CB01ED81CE
:1015D000FE8184839583A683B7830E948618882F13
:1015E00090E0182F00270E948618882F90E0802B0B
:1015F000912BCC01A0E0B0E0BC01CD010E944C2DAC
:10160000DC01CB01ED81FE8180879187A287B387C2
:101610000E948618882F90E0182F00270E948618B5
:10162000882F90E0802B912BCC01A0E0B0E0BC0192
:10163000CD010E944C2DDC01CB0189839A83AB83C1
:10164000BC830E948618882F90E0182F00270E94E4
:101650008618882F90E0802B912BCC01A0E0B0E081
:10166000BC01CD010E944C2DDC01CB01EF81F8853E
:1016700080839183A283B3830E948618882F90E091
:10168000182F00270E948618882F90E0802B912B1E
:10169000CC01A0E0B0E0BC01CD010E944C2DDC01EA
:1016A000CB01EF81F88584839583A683B7830E945D
:1016B0008618882F90E0182F00270E948618882F00
:1016C00090E0802B912BCC01A0E0B0E0BC01CD01DB
:1016D0000E944C2DDC01CB01EF81F885808791873A
:1016E000A287B3870E947B18ED81FE818081918162
:1016F000A281B381BC01CD0120E030E040E055E49F
:101700000E94B82CDC01CB01ED81FE8180839183A6
:10171000A283B383ED81FE8184819581A681B78107
:10172000BC01CD0120E030E040E055E40E94B82C3F
:10173000DC01CB01ED81FE8184839583A683B78391
:10174000ED81FE8180859185A285B385BC01CD01A7
:1017500020E030E040E055E40E94B82CDC01CB01F1
:10176000ED81FE8180879187A287B387EF81F8851D
:1017700080819181A281B381BC01CD0123E333E358
:1017800043E851E40E94B82CDC01CB01EF81F885DD
:1017900080839183A283B383EF81F88584819581CF
:1017A000A681B781BC01CD0123E333E343E851E4D3
:1017B0000E94B82CDC01CB01EF81F88584839583EE
:1017C000A683B783EF81F88580859185A285B3854F
:1017D000BC01CD0123E333E343E851E40E94B82C7C
:1017E000DC01CB01EF81F88580879187A287B387E1
:1017F00028960FB6F894DEBF0FBECDBFCF91DF9114
:101800001F910F910895DF93CF9300D0CDB7DEB72E
:10181000AFE4B0E0EFE4F0E08081826A8C93ABE863
:10182000B0E0EBE8F0E08081836A8C93EDE4F0E0D7
:101830008EE88083ECE4F0E08BE08083E8E8F0E081
:101840008EE88083E9E8F0E08BE0808383E59BE726
:101850009A838983EBE4F0E089819A81892F992723
:101860008083EAE4F0E089818083E9E4F0E0898123
:101870009A81892F99278083E8E4F0E08981808329
:10188000E7E8F0E089819A81892F99278083E6E84B
:10189000F0E089818083E5E8F0E089819A81892FF1
:1018A00099278083E4E8F0E089818083E7E4F0E031
:1018B0008FEF8083E6E4F0E08FEF8083A7E5B0E070
:1018C000E7E5F0E0808184608C93ADE7B0E0EDE780
:1018D000F0E0808184608C93AEE4B0E0EEE4F0E070
:1018E00080818D618C93AAE8B0E0EAE8F0E0808125
:1018F0008A618C930F900F90CF91DF910895DF93C1
:10190000CF9300D000D0CDB7DEB79A838983EDE4C2
:10191000F0E08EE88083ECE4F0E08BE080830F90D1
:101920000F900F900F90CF91DF910895DF93CF9399
:1019300000D000D000D0CDB7DEB78B836C838B8115
:1019400094E6692F0E94652E282F30E080ED97E005
:10195000AC01249FC001259F900D349F900D112450
:1019600085529A469A8389838C81282F30E03E8362
:101970002D834D815E814230510511F18D819E8113
:101980008330910534F42D813E812130310561F0A1
:101990003BC04D815E8143305105F1F08D819E81C8
:1019A0008430910529F130C0EBE4F0E089819A811F
:1019B000892F99278083EAE4F0E08981808365C0DC
:1019C000E9E4F0E089819A81892F99278083E8E40E
:1019D000F0E08981808359C0E7E8F0E089819A814D
:1019E000892F99278083E6E8F0E0898180834DC0C4
:1019F000E5E8F0E089819A81892F99278083E4E8DE
:101A0000F0E08981808341C08B8194E6692F0E9438
:101A1000652E282F30E080ED97E0AC01249FC001B7
:101A2000259F900D349F900D112485529A469A83DC
:101A30008983EBE4F0E089819A81892F992780835B
:101A4000EAE4F0E089818083E9E4F0E089819A8129
:101A5000892F99278083E8E4F0E089818083E7E893
:101A6000F0E089819A81892F99278083E6E8F0E068
:101A700089818083E5E8F0E089819A81892F99271F
:101A80008083E4E8F0E08981808326960FB6F8949D
:101A9000DEBF0FBECDBFCF91DF910895DF93CF930F
:101AA000CDB7DEB7EFE4F0E01082EEE4F0E01082B4
:101AB000EBE8F0E01082EAE8F0E01082ECE4F0E01D
:101AC00011821082E8E8F0E011821082EAE4F0E08E
:101AD00011821082E8E4F0E011821082E6E8F0E082
:101AE00011821082E4E8F0E011821082E7E5F0E074
:101AF0001082EDE7F0E01082CF91DF910895DF933F
:101B0000CF93CDB7DEB7E1ECF0E088E18083E2EC83
:101B1000F0E086E88083E4ECF0E087E68083CF9114
:101B2000DF910895DF93CF93CDB7DEB7E9ECF0E016
:101B300088E18083EAECF0E086E88083ECECF0E07A
:101B400087E68083CF91DF910895DF93CF93CDB760
:101B5000DEB7E1EDF0E088E18083E2EDF0E086E8D9
:101B60008083E4EDF0E087E68083CF91DF910895F4
:101B7000DF93CF930F92CDB7DEB78983E6ECF0E029
:101B800089818083E0ECF0E0808182958695877082
:101B9000882F90E0817090700097A1F3A0ECB0E0E6
:101BA000E0ECF0E0808180648C930F90CF91DF9126
:101BB0000895DF93CF93CDB7DEB7E0ECF0E08081FE
:101BC0008823DCF7E6ECF0E08081CF91DF91089587
:101BD000DF93CF930F92CDB7DEB78983EEECF0E0C1
:101BE00089818083E8ECF0E080818295869587701A
:101BF000882F90E0817090700097A1F3A8ECB0E07E
:101C0000E8ECF0E0808180648C930F90CF91DF91BD
:101C10000895DF93CF93CDB7DEB7E8ECF0E0808195
:101C20008823DCF7EEECF0E08081CF91DF9108951E
:101C3000DF93CF930F92CDB7DEB78983E6EDF0E067
:101C400089818083E0EDF0E08081829586958770C0
:101C5000882F90E0817090700097A1F3A0EDB0E024
:101C6000E0EDF0E0808180648C930F90CF91DF9164
:101C70000895DF93CF93CDB7DEB7E0EDF0E080813C
:101C80008823DCF7E6EDF0E08081CF91DF910895C5
:101C9000DF93CF9300D0CDB7DEB79A8389830AC094
:101CA000E981FA8180810E94B80D89819A8101962B
:101CB0009A838983E981FA818081882389F70F904B
:101CC0000F90CF91DF910895DF93CF9300D0CDB7E0
:101CD000DEB79A8389830E94D90DE981FA818083D6
:101CE0000AC089819A8101969A8389830E94D90DBD
:101CF000E981FA818083E981FA818081833289F7E1
:101D0000E981FA8110820F900F90CF91DF910895B1
:101D1000DF93CF9300D0CDB7DEB79A8389830AC013
:101D2000E981FA8180810E94E80D89819A8101967A
:101D30009A838983E981FA818081882389F70F90CA
:101D40000F90CF91DF910895DF93CF9300D0CDB75F
:101D5000DEB79A8389830E94090EE981FA81808324
:101D60000AC089819A8101969A8389830E94090E0B
:101D7000E981FA818083E981FA818081833289F760
:101D8000E981FA8110820F900F90CF91DF91089531
:101D9000DF93CF9300D0CDB7DEB79A8389830AC093
:101DA000E981FA8180810E94180E89819A810196C9
:101DB0009A838983E981FA818081882389F70F904A
:101DC0000F90CF91DF910895DF93CF9300D0CDB7DF
:101DD000DEB79A8389830E94390EE981FA81808374
:101DE0000AC089819A8101969A8389830E94390E5B
:101DF000E981FA818083E981FA8180818C3289F7D7
:101E0000E981FA8110820F900F90CF91DF910895B0
:101E1000DF93CF93CDB7DEB727970FB6F894DEBF29
:101E20000FBECDBF9D838C836E834F838AE190E08C
:101E30000E947A179A83898389819A81009709F48D
:101E40006FC08091100190911101009741F4898138
:101E50009A8190931101809310010E946F118E81DD
:101E6000823010F081E08E83E981FA81118E108E2C
:101E7000E981FA818E81868BE981FA818F81878B56
:101E8000E981FA818C819D819183808389819A8106
:101E900002960E94C31889819A810C960E94C318E9
:101EA000E981FA8189819A8191878087E981FA8124
:101EB00089819A81938B828B8E81282F30E083E0F9
:101EC00090E0821B930BE981FA8195878487E981F1
:101ED000FA81968980911201891728F4E981FA81A3
:101EE000868980931201E981FA818689282F30E062
:101EF000C901880F991F880F991F880F991F820F9A
:101F0000931FAC01475E5E4F89819A819C012E5FD1
:101F10003F4FCA01B9010E94D31881E08B8302C0F0
:101F20008FEF8B838B8127960FB6F894DEBF0FBEA1
:101F3000CDBFCF91DF910895DF93CF9300D000D034
:101F400000D0CDB7DEB79C838B837E836D832091D9
:101F50001301309114018B819C81820F931F9A830E
:101F60008983809110019091110102960E948B1932
:101F7000E0911001F091110189819A81938382830C
:101F8000209113013091140189819A81821793075E
:101F900070F480913F0190914001209110013091A7
:101FA00011012E5F3F4FB9010E941F190DC0809192
:101FB0003D0190913E0120911001309111012E5F61
:101FC0003F4FB9010E941F198D819E81009761F0DA
:101FD00080911001909111019C01245F3F4F8D81F0
:101FE0009E81B9010E941F1926960FB6F894DEBF94
:101FF0000FBECDBFCF91DF910895DF93CF9300D077
:10200000CDB7DEB73AC0F894E0914601F0914701B0
:10201000868197819A83898389819A810C960E940F
:102020008B19789489819A8102960E948B19E98193
:10203000FA81968980911201891728F4E981FA8141
:10204000868980931201E981FA818689282F30E000
:10205000C901880F991F880F991F880F991F820F38
:10206000931FAC01475E5E4F89819A819C012E5F70
:102070003F4FCA01B9010E94D318809141018823C2
:1020800009F0C1CF0F900F90CF91DF910895DF93AA
:10209000CF9300D000D0CDB7DEB70E943628209174
:1020A000150130911601821B930B909318018093B8
:1020B000170185C0809113019091140101969093AE
:1020C00014018093130180911701909118010197D9
:1020D000909318018093170180911301909114013E
:1020E000009709F064C080913D0190913E019A8370
:1020F000898380913F019091400190933E018093AC
:102100003D0189819A819093400180933F014FC0A6
:10211000E0913D01F0913E010580F681E02D868140
:1021200097819C838B83EB81FC8122813381809119
:102130001301909114018217930708F440C0F8949A
:102140008B819C8102960E948B19EB81FC81848992
:102150009589009729F08B819C810C960E948B19A0
:102160007894EB81FC81968980911201891728F47B
:10217000EB81FC81868980931201EB81FC81868949
:10218000282F30E0C901880F991F880F991F880FE9
:10219000991F820F931FAC01475E5E4F8B819C811C
:1021A0009C012E5F3F4FCA01B9010E94D318E091F4
:1021B0003D01F0913E018081882309F0A9CF8091F3
:1021C000170190911801009709F074CF80911301C5
:1021D0009091140190931601809315010F900F9028
:1021E0000F900F90CF91DF910895DF93CF9300D0A0
:1021F000CDB7DEB70E94FD0F0E9447100AC0809144
:102200001201882309F466C08091120181508093E5
:10221000120180911201282F30E0C901880F991F07
:10222000880F991F880F991F820F931FFC01E75E8B
:10223000FE4F8081882319F380911201282F30E00E
:10224000C901880F991F880F991F880F991F820F46
:10225000931F875E9E4F9A838983E981FA8101806B
:10226000F281E02D82819381E981FA8192838183D9
:10227000E981FA812181328189819A810396281727
:10228000390759F4E981FA810180F281E02D8281D8
:102290009381E981FA8192838183E981FA810180C6
:1022A000F281E02D86819781909311018093100136
:1022B000E0911001F0911101408151818091100154
:1022C00090911101E0911001F09111012789622F85
:1022D000FA0109950F900F90CF91DF910895DF9348
:1022E000CF930F92CDB7DEB7198213C08981282F03
:1022F00030E0C901880F991F880F991F880F991F17
:10230000820F931F875E9E4F0E94991889818F5F6D
:1023100089838981823050F38BE291E00E94991881
:1023200084E391E00E94991881E491E00E94991859
:102330008BE291E090933E0180933D0184E391E034
:102340009093400180933F010F90CF91DF910895CA
:10235000DF93CF9300D000D00F92CDB7DEB79D832F
:102360008C83EC81FD810580F681E02D868197814B
:102370009B838A838A819B810C960E948B198A8118
:102380009B819C01245F3F4F81E491E0B9010E9451
:10239000D318EA81FB819689E0911001F091110137
:1023A0008689981718F081E0898301C01982898194
:1023B0000F900F900F900F900F90CF91DF91089595
:1023C000EF92FF920F931F93DF93CF93CDB7DEB7BA
:1023D000C254D0400FB6F894DEBF0FBECDBFFE0191
:1023E000EF5BFF4F918380838DAD9EADFE01FF9625
:1023F00020813181B9010E949E0A8FE692E1A3E813
:10240000BAE389AF9AAFABAFBCAF80E090E0A0E891
:10241000BFE38DAB9EABAFABB8AF80E090E0A0E880
:10242000BFE389AB9AABABABBCABFE01EF5BFF4F3D
:102430000190F081E02D84A195A1A6A1B7A1BC01D6
:10244000CD010E94FC217B018C01FE01EF5BFF4F5F
:102450000190F081E02D80A591A5A2A5B3A5BC01B6
:10246000CD010E94FC219B01AC01C801B7010E9473
:10247000022EDC01CB017C018D01FE01EF5BFF4FE1
:102480000190F081E02D80A591A5A2A5B3A5BC0186
:10249000CD010E94D5229B01AC01C801B7010E9469
:1024A000B82CDC01CB018DA79EA7AFA7B8ABFE016E
:1024B000EF5BFF4F0190F081E02D84A195A1A6A1D3
:1024C000B7A1BC01CD010E94D5227B018C01FE0188
:1024D000EF5BFF4F0190F081E02D80A591A5A2A5B3
:1024E000B3A5BC01CD010E94FC219B01AC01C80138
:1024F000B7010E94022EDC01CB017C018D01FE019F
:10250000EF5BFF4F0190F081E02D80A591A5A2A582
:10251000B3A5BC01CD010E94D5229B01AC01C8012D
:10252000B7010E94B82CDC01CB0189A79AA7ABA701
:10253000BCA780E090E0A0E0B0E08DA39EA3AFA395
:10254000B8A7FE01EF5BFF4F0190F081E02D84A161
:1025500095A1A6A1B7A1BC01CD010E94D522DC01A5
:10256000CB0189A39AA3ABA3BCA3FE01EF5BFF4FF2
:102570000190F081E02D84A195A1A6A1B7A1BC0195
:10258000CD010E94FC21DC01CB01B0588D8F9E8FC4
:10259000AF8FB8A380E090E0A0E0B0E0898F9A8F81
:1025A000AB8FBC8FFE01EF5BFF4F0190F081E02D00
:1025B00084A195A1A6A1B7A1BC01CD010E94FC21D7
:1025C0007B018C01FE01EF5BFF4F0190F081E02D5C
:1025D00080A591A5A2A5B3A5BC01CD010E94D522DD
:1025E0009B01AC01C801B7010E94B82CDC01CB01F2
:1025F0008D8B9E8BAF8BB88FFE01EF5BFF4F0190F1
:10260000F081E02D84A195A1A6A1B7A1BC01CD01C7
:102610000E94D5227B018C01FE01EF5BFF4F0190F0
:10262000F081E02D80A591A5A2A5B3A5BC01CD01A7
:102630000E94D5229B01AC01C801B7010E94B82CB1
:10264000DC01CB01898B9A8BAB8BBC8BFE01EF5BE2
:10265000FF4F0190F081E02DE4ACF5AC06AD17AD75
:10266000FE01EF5BFF4F80819181FC01E05CFF4F39
:1026700080819181A281B381BC01CD012DA53EA5B0
:102680004FA558A90E94022EDC01CB019C01AD018F
:10269000C801B7010E94502CDC01CB017C018D01E7
:1026A000FE01EF5BFF4F80819181FC01EC5BFF4FEE
:1026B00080819181A281B381BC01CD0129A53AA578
:1026C0004BA55CA50E94022EDC01CB019C01AD0153
:1026D000C801B7010E94502CDC01CB01FE01EF5B69
:1026E000FF4F0190F081E02D80AB91ABA2ABB3AB7B
:1026F000FE01EF5BFF4F80819181FC01E05CFF4FA9
:1027000080819181A281B381BC01CD0129A13AA12F
:102710004BA15CA10E94022EDC01CB017C018D014A
:10272000FE01EF5BFF4F80819181FC01EC5BFF4F6D
:1027300080819181A281B381BC01CD012D8D3E8D1F
:102740004F8D58A10E94022EDC01CB019C01AD01EE
:10275000C801B7010E944F2CDC01CB01FE01EF5BE9
:10276000FF4F0190F081E02D84AB95ABA6ABB7ABEA
:10277000FE01EF5BFF4F80819181FC01E05CFF4F28
:1027800080819181A281B381BC01CD012D893E89D7
:102790004F89588D0E94022EDC01CB017C018D01F6
:1027A000FE01EF5BFF4F80819181FC01EC5BFF4FED
:1027B00080819181A281B381BC01CD0129893A89AF
:1027C0004B895C890E94022EDC01CB019C01AD018A
:1027D000C801B7010E94502CDC01CB01FE01EF5B68
:1027E000FF4F0190F081E02D80AF91AFA2AFB3AF6A
:1027F000FE01EF5BFF4F0190F081E02DE4A0F5A01A
:1028000006A117A1FE01EF5BFF4F0190F081E02DC3
:1028100080A991A9A2A9B3A9BC01CD0129AD3AAD66
:102820004BAD5CAD0E94022EDC01CB019C01AD01E1
:10283000C801B7010E94502CDC01CB018D879E8717
:10284000AF87B88BFE01EF5BFF4F0190F081E02D69
:10285000E0A4F1A402A513A5FE01EF5BFF4F0190D8
:10286000F081E02D84A995A9A6A9B7A9BC01CD0145
:1028700029AD3AAD4BAD5CAD0E94022EDC01CB011F
:102880009C01AD01C801B7010E94502CDC01CB01B5
:1028900089879A87AB87BC87FE01EF5BFF4F01906A
:1028A000F081E02DE4A4F5A406A517A5FE01EF5BD9
:1028B000FF4F0190F081E02D80AD91ADA2ADB3ADA1
:1028C000BC01CD0129AD3AAD4BAD5CAD0E94022EED
:1028D000DC01CB019C01AD01C801B7010E94502C65
:1028E000DC01CB01FE01EF5BFF4F0190F081E02D99
:1028F00084A795A7A6A7B7A7FE01EF5BFF4F01909E
:10290000F081E02D84A595A5A6A5B7A5BC01CD01B4
:1029100020ED3FE049E450E40E94FE2D1816F4F447
:10292000FE01EF5BFF4F0190F081E02D84A595A59E
:10293000A6A5B7A5BC01CD0120ED3FE049EC50E4D0
:102940000E944F2CDC01CB01FE01EF5BFF4F019099
:10295000F081E02D84A795A7A6A7B7A7FE01EF5B9E
:10296000FF4F0190F081E02D84A595A5A6A5B7A500
:10297000BC01CD0120ED3FE049E450EC0E94B42CB5
:102980008823F4F4FE01EF5BFF4F0190F081E02D0E
:1029900084A595A5A6A5B7A5BC01CD0120ED3FE076
:1029A00049EC50E40E94502CDC01CB01FE01EF5BAE
:1029B000FF4F0190F081E02D84A795A7A6A7B7A7A8
:1029C000EDADFEAD84819581A681B781EDADFEAD03
:1029D0002085318542855385BC01CD010E94B82CEC
:1029E000DC01CB01BC01CD010E94AB23DC01CB019A
:1029F0008D839E83AF83B887EDADFEAD84819581D5
:102A0000A681B781BC01CD0124EF3DEF4CE151EC33
:102A10000E94B82CDC01CB01BC01CD010E94AB238C
:102A2000DC01CB0189839A83AB83BC836DA97EA92A
:102A30008FA998AD29AD3AAD4BAD5CAD0E94502C3D
:102A4000DC01CB019C01AD016DA97EA98FA998ADD8
:102A50000E94B82CDC01CB01BC01CD012D853E8547
:102A60004F8558890E94022EDC01CB017C018D012B
:102A70006DA97EA98FA998AD29AD3AAD4BAD5CADDE
:102A80000E94502CDC01CB019C01AD0169AD7AADF7
:102A90008BAD9CAD0E94B82CDC01CB01BC01CD01FB
:102AA0002D813E814F8158850E94022EDC01CB0191
:102AB0009C01AD01C801B7010E94502CDC01CB0183
:102AC000FE01EF5BFF4F0190F081E02D84A395A301
:102AD000A6A3B7A36DA97EA98FA998AD29AD3AADDC
:102AE0004BAD5CAD0E94502CDC01CB019C01AD01D3
:102AF0006DA97EA98FA998AD0E94B82CDC01CB01ED
:102B0000BC01CD0129853A854B855C850E94022E4A
:102B1000DC01CB017C018D016DA97EA98FA998AD47
:102B200029AD3AAD4BAD5CAD0E94502CDC01CB0120
:102B30009C01AD0169AD7AAD8BAD9CAD0E94B82C06
:102B4000DC01CB01BC01CD0129813A814B815C8143
:102B50000E94022EDC01CB019C01AD01C801B7012E
:102B60000E94502CDC01CB01FE01EF5BFF4F019076
:102B7000F081E02D80A791A7A2A7B3A7CE5BDF4F7E
:102B80000FB6F894DEBF0FBECDBFCF91DF911F917E
:102B90000F91FF90EF900895DF93CF93CDB7DEB7FD
:102BA000CB54D0400FB6F894DEBF0FBECDBFFE01B0
:102BB000EA5BFF4F91838083FE01E85BFF4F7183E7
:102BC0006083FE01E65BFF4F518340830E94090E44
:102BD0008D8F0E94090E8C8F0E94090E8B8F8D8D18
:102BE000873431F48C8D873419F48B8D813429F03E
:102BF0008C8D8D8F8B8D8C8FEFCF0E94090E8CADBD
:102C0000882F90E00E94A40ECE014E960E94A40E42
:102C10000E94090E0E94090ECE0188960E94A40E01
:102C20000E94090E0E94090E0E94090E8CAD882F89
:102C300090E00E94A40E8CAD882F90E00E94A40E1C
:102C4000CE01C2960E94A40ECE014E960E947E2412
:102C5000AA2797FDA095BA2FBC01CD010E944E2D49
:102C6000DC01CB018F8B988FA98FBA8FCE0188960C
:102C70000E947E24AA2797FDA095BA2FBC01CD0102
:102C80000E944E2DDC01CB018B8B9C8BAD8BBE8BC0
:102C9000CE01C2960E947E24AA2797FDA095BA2F46
:102CA000BC01CD010E944E2DDC01CB018F87988B9A
:102CB000A98BBA8B6F89788D898D9A8D20E030E051
:102CC00048EC52E40E94B82CDC01CB01BC01CD01E0
:102CD0000E94202DDC01CB018E878E85882F90E00D
:102CE000AA2797FDA095BA2FBC01CD010E944E2DB9
:102CF0009B01AC016F89788D898D9A8D0E944F2C34
:102D0000DC01CB01BC01CD0120E030E040E752E422
:102D10000E94B82CDC01CB018A879B87AC87BD87DA
:102D20008E85882F90E0AA2797FDA095BA2FBC0129
:102D3000CD010E944E2DDC01CB01BC01CD012A85C5
:102D40003B854C855D850E94502CDC01CB018E8338
:102D50009F83A887B9876E817F818885998520E8C0
:102D600031E149ED57E40E94022EDC01CB018F8B4B
:102D7000988FA98FBA8F6B897C898D899E8920E075
:102D800030E048EC52E40E94B82CDC01CB01BC01DD
:102D9000CD010E94202DDC01CB018D838D81882FF8
:102DA00090E0AA2797FDA095BA2FBC01CD010E9403
:102DB0004E2D9B01AC016B897C898D899E890E9477
:102DC0004F2CDC01CB01BC01CD0120E030E040E71D
:102DD00052E40E94B82CDC01CB018A879B87AC8728
:102DE000BD878D81882F90E0AA2797FDA095BA2FE7
:102DF000BC01CD010E944E2DDC01CB01BC01CD01F7
:102E00002A853B854C855D850E94502CDC01CB01D9
:102E100089839A83AB83BC8369817A818B819C810E
:102E200020E831E149ED57E40E94022EDC01CB019C
:102E30008B8B9C8BAD8BBE8B8F89988DA98DBA8D1A
:102E4000BC01CD010E947E24AA2797FDA095BA2F30
:102E5000BC01CD010E944E2DDC01CB01FE01E85BDF
:102E6000FF4F0190F081E02D80839183A283B38393
:102E70008B899C89AD89BE89BC01CD010E947E24CD
:102E8000AA2797FDA095BA2FBC01CD010E944E2D17
:102E9000DC01CB01FE01EA5BFF4F0190F081E02DE8
:102EA00080839183A283B3838F859889A989BA8906
:102EB000BC01CD010E947E24AA2797FDA095BA2FC0
:102EC000BC01CD010E944E2DDC01CB01FE01E65B71
:102ED000FF4F0190F081E02D80839183A283B38323
:102EE000C55BDF4F0FB6F894DEBF0FBECDBFCF91ED
:102EF000DF910895DF93CF9300D000D0CDB7DEB738
:102F00009C838B831A8219820E94A02780914A0198
:102F100090914B012B813C81820F931F22E08835D9
:102F2000920718F520914A0130914B018B819C81C9
:102F3000280F391F80914A0190914B018217930706
:102F4000A0F480914A0190914B01845B9E4F9A833B
:102F5000898320914A0130914B018B819C81820FA2
:102F6000931F90934B0180934A010E94AC27898163
:102F70009A810F900F900F900F90CF91DF9108954D
:102F8000DF93CF9300D0CDB7DEB79A8389830F90BC
:102F90000F90CF91DF910895DF93CF93CDB7DEB738
:102FA00010924B0110924A01CF91DF910895DF9367
:102FB000CF93CDB7DEB720914A0130914B0188E520
:102FC00092E0821B930BCF91DF910895DF93CF9313
:102FD0000F92CDB7DEB78983E4E7F0E01082E0E737
:102FE000F0E0898180830F90CF91DF910895DF9386
:102FF000CF93CDB7DEB7E4E7F0E084EA8083E4E77F
:10300000F0E080818823DCF7E1E7F0E08081882F21
:1030100090E0887F90708830910551F0E1E7F0E012
:103020008081882F90E0887F90708031910561F7D2
:10303000CF91DF910895DF93CF9300D00F92CDB75A
:10304000DEB78983E3E7F0E089818083A4E7B0E01D
:10305000E4E7F0E080818F7D8C93E4E7F0E084E8A2
:103060008083E4E7F0E080818823DCF7E1E7F0E0AB
:103070008081882F90E0887F90701B828831910535
:1030800011F081E08B83E1E7F0E08081882F90E010
:10309000887F90701A828034910511F091E09A83B4
:1030A0008B819A818923882309F70F900F900F90C5
:1030B000CF91DF910895DF93CF9300D0CDB7DEB7E6
:1030C0008A83E3E7F0E08A818083E4E7F0E084E844
:1030D0008083E4E7F0E080818823DCF7E1E7F0E03B
:1030E0008081887F898389818832E9F70F900F90EA
:1030F000CF91DF910895DF93CF93CDB7DEB7E4E7AB
:10310000F0E084E98083CF91DF910895DF93CF933E
:10311000CDB7DEB7E4E7F0E084EC8083E4E7F0E0ED
:1031200080818823DCF7E3E7F0E08081CF91DF91B5
:103130000895DF93CF9300D0CDB7DEB79A8389830C
:1031400089819A810396E981FA8192838183E98159
:10315000FA818FEF9FEF9483838389819A8103960D
:10316000E981FA819683858389819A810396E98131
:10317000FA8190878783E981FA8110820F900F90FE
:10318000CF91DF910895DF93CF9300D0CDB7DEB715
:103190009A838983E981FA81118610860F900F90B6
:1031A000CF91DF910895DF93CF9300D000D000D06E
:1031B000CDB7DEB79C838B837E836D83EB81FC81EF
:1031C000818192819A838983E981FA8182819381C5
:1031D000ED81FE8193838283EB81FC8181819281E9
:1031E000ED81FE8195838483E981FA810280F381F8
:1031F000E02D8D819E81958384838D819E81E981DF
:10320000FA81938382838D819E81EB81FC819283FD
:103210008183ED81FE818B819C8191878087EB8109
:10322000FC8180818F5FEB81FC81808326960FB6C5
:10323000F894DEBF0FBECDBFCF91DF910895DF932D
:10324000CF93CDB7DEB728970FB6F894DEBF0FBE89
:10325000CDBF9E838D8378876F83EF81F8858081D2
:1032600091819A83898389819A812FEF8F3F920779
:1032700039F4ED81FE81878190859C838B8318C012
:103280008D819E8103969C838B8306C0EB81FC819C
:10329000828193819C838B83EB81FC810280F3810B
:1032A000E02D2081318189819A818217930770F7FF
:1032B000EB81FC8182819381EF81F8859383828306
:1032C000EF81F8850280F381E02D8F8198859583C9
:1032D0008483EF81F8858B819C81958384838F81A2
:1032E0009885EB81FC8193838283EF81F8858D81C2
:1032F0009E8191878087ED81FE8180818F5FED8146
:10330000FE81808328960FB6F894DEBF0FBECDBF36
:10331000CF91DF910895DF93CF9300D000D0CDB748
:10332000DEB79C838B83EB81FC81A281B381EB812F
:10333000FC818481958115969C938E931497EB81E3
:10334000FC81A481B581EB81FC81828193811396FC
:103350009C938E931297EB81FC81808591859A8353
:103360008983E981FA81218132818B819C812817AF
:10337000390741F4EB81FC8184819581E981FA81EF
:1033800092838183EB81FC8111861086E981FA8129
:1033900080818150E981FA8180830F900F900F9096
:1033A0000F90CF91DF910895DF93CF93CDB7DEB724
:1033B000C859D0400FB6F894DEBF0FBECDBF0E94F3
:1033C000030CFFCFDF93CF93CDB7DEB728970FB6AF
:1033D000F894DEBF0FBECDBF9C838B837E836D834D
:1033E00058874F83EB81FC8181E180838B819C81B5
:1033F00001979C838B83EB81FC8182E280838B81AC
:103400009C8101979C838B83EB81FC8183E3808388
:103410008B819C8101979C838B838D819E819A8374
:1034200089838981EB81FC8180838B819C810197D9
:103430009C838B8389819A81892F99279A83898399
:103440008981EB81FC8180838B819C8101979C83A6
:103450008B83EB81FC8110828B819C8101979C8303
:103460008B83EB81FC8180E880838B819C81019739
:103470009C838B83EB81FC8110828B819C810197E3
:103480009C838B83EB81FC8182E080838B819C8198
:1034900001979C838B83EB81FC8183E080838B810C
:1034A0009C8101979C838B83EB81FC8184E08083EA
:1034B0008B819C8101979C838B83EB81FC8185E0D0
:1034C00080838B819C8101979C838B83EB81FC8122
:1034D00086E080838B819C8101979C838B83EB8129
:1034E000FC8187E080838B819C8101979C838B8307
:1034F000EB81FC8188E080838B819C8101979C8398
:103500008B83EB81FC8189E080838B819C81019797
:103510009C838B83EB81FC8180E180838B819C8108
:1035200001979C838B83EB81FC8181E180838B817C
:103530009C8101979C838B83EB81FC8182E180835A
:103540008B819C8101979C838B83EB81FC8183E140
:1035500080838B819C8101979C838B83EB81FC8191
:1035600084E180838B819C8101979C838B83EB8199
:10357000FC8185E180838B819C8101979C838B8377
:10358000EB81FC8186E180838B819C8101979C8308
:103590008B83EB81FC8187E180838B819C81019708
:1035A0009C838B83EB81FC8188E180838B819C8170
:1035B00001979C838B83EB81FC8189E180838B81E4
:1035C0009C8101979C838B83EB81FC8180E28083CB
:1035D0008B819C8101979C838B83EB81FC8181E2B1
:1035E00080838B819C8101979C838B83EB81FC8101
:1035F00082E280838B819C8101979C838B83EB810A
:10360000FC8183E280838B819C8101979C838B83E7
:103610008F8198859A8389838981EB81FC8180835E
:103620008B819C8101979C838B8389819A81892FCF
:1036300099279A8389838981EB81FC8180838B819F
:103640009C8101979C838B83EB81FC8186E2808344
:103650008B819C8101979C838B83EB81FC8187E22A
:1036600080838B819C8101979C838B83EB81FC8180
:1036700088E280838B819C8101979C838B83EB8183
:10368000FC8189E280838B819C8101979C838B8361
:10369000EB81FC8180E380838B819C8101979C83FB
:1036A0008B83EB81FC8181E380838B819C810197FB
:1036B0009C838B838B819C8128960FB6F894DEBF08
:1036C0000FBECDBFCF91DF910895DF93CF93CDB7DC
:1036D000DEB70E94551CA091A403B091A503CD9123
:1036E000CDBFDD91DEBFFF91EF91DF91CF91BF9113
:1036F000AF919F918F917F916F915F914F913F918A
:103700002F911F910F91FF90EF90DF90CF90BF907E
:10371000AF909F908F907F906F905F904F903F9071
:103720002F901F900F900FBE0F90089581E0CF91C2
:10373000DF910895DF93CF93CDB7DEB7CF91DF91BF
:1037400008950F920FB6F8940F921F9211242F92A2
:103750003F924F925F926F927F928F929F92AF9221
:10376000BF92CF92DF92EF92FF920F931F932F930E
:103770003F934F935F936F937F938F939F93AF93F9
:10378000BF93CF93DF93EF93FF93A091A403B091E6
:10379000A5030DB60D920EB60D920E944029A09180
:1037A000A403B091A503CD91CDBFDD91DEBFFF9104
:1037B000EF91DF91CF91BF91AF919F918F917F91C9
:1037C0006F915F914F913F912F911F910F91FF90BA
:1037D000EF90DF90CF90BF90AF909F908F907F90B1
:1037E0006F905F904F903F902F901F900F900FBE63
:1037F0000F9008950F920FB6F8940F921F92112414
:103800002F923F924F925F926F927F928F929F92F0
:10381000AF92BF92CF92DF92EF92FF920F931F93DE
:103820002F933F934F935F936F937F938F939F93C8
:10383000AF93BF93CF93DF93EF93FF93A091A40334
:10384000B091A5030DB60D920EB60D920E946B2895
:103850000E944029A091A403B091A503CD91CDBFB2
:10386000DD91DEBFFF91EF91DF91CF91BF91AF91DD
:103870009F918F917F916F915F914F913F912F9188
:103880001F910F91FF90EF90DF90CF90BF90AF907E
:103890009F908F907F906F905F904F903F902F9070
:1038A0001F900F900FBE0F900895DF93CF9300D01D
:1038B00000D000D0CDB7DEB780EE9EE2A0E0B0E051
:1038C0008B839C83AD83BE838B819C81AD81BE81C4
:1038D000689415F8B695A795979587951694D1F79E
:1038E0008B839C83AD83BE838B819C81AD81BE81A4
:1038F0000197A109B1098B839C83AD83BE838B8122
:1039000089838B819C81AD81BE81892F9A2FAB2FBA
:10391000BB278B839C83AD83BE838B818A83EBE43F
:10392000F0E08A818083EAE4F0E0898180838BE0A3
:103930008983EEE4F0E089818083E7E5F0E080812F
:103940008983898180618983E7E5F0E089818083CB
:1039500026960FB6F894DEBF0FBECDBFCF91DF9194
:1039600008950E94FA1B1895DF93CF93CDB7DEB769
:1039700028970FB6F894DEBF0FBECDBF8F83688740
:103980001A8219828F81882309F48CC08FE190E01C
:103990000E947A179E838D838D819E81009709F402
:1039A00081C08F81282F30E08885882F90E0AC017E
:1039B000249FC001259F900D349F900D11240196E6
:1039C0009C838B838B819C810E947A17ED81FE8181
:1039D00091838083ED81FE8180819181009709F43C
:1039E0005DC0ED81FE81408151818F81282F30E0C3
:1039F0008885882F90E0BC01269FC001279F900DED
:103A0000369F900D1124840F951FED81FE819383C5
:103A10008283ED81FE81128EED81FE818081918114
:103A2000ED81FE8195838483ED81FE81408151810A
:103A30008F81882F90E09C01215030408885882F0D
:103A400090E0BC01269FC001279F900D369F900DEE
:103A50001124840F951FED81FE8197838683ED816C
:103A6000FE818F81838FED81FE818885848FED813A
:103A7000FE818FEF858FED81FE818FEF868F8D81A7
:103A80009E8108960E9499188D819E8141960E9480
:103A900099188D819E819A83898304C08D819E812E
:103AA0000E94C01789819A8128960FB6F894DEBFCC
:103AB0000FBECDBFCF91DF910895DF93CF93CDB7E8
:103AC000DEB72C970FB6F894DEBF0FBECDBF9E8336
:103AD0008D8378876F835A8749872B8719820FB622
:103AE000F8940F92ED81FE81928DED81FE81838DA0
:103AF0009817D8F48D819E812F813885B9014B8527
:103B00000E94981FED81FE818189882349F08D8173
:103B10009E8141960E94DC29813011F40E94A11BF4
:103B20000F900FBE81E08C875CC089859A850097D5
:103B300021F40F900FBE1C8654C08981882331F474
:103B4000CE0102960E94442A81E089830F900FBE25
:103B50000E94A0270FB6F8940F92ED81FE81858D0B
:103B60008F3F19F4ED81FE81158EED81FE81868DEA
:103B70008F3F19F4ED81FE81168E0F900FBECE019E
:103B800002969E01275F3F4FB9010E945D2A88235C
:103B900009F58D819E810E94FC208823A1F08D81F2
:103BA0009E81089629853A85B9010E94A6298D81B2
:103BB0009E810E9475200E94AC27882309F08FCF38
:103BC0000E94A11B8CCF8D819E810E9475200E9436
:103BD000AC2785CF8D819E810E9475200E94AC27E5
:103BE0001C868C852C960FB6F894DEBF0FBECDBF19
:103BF000CF91DF910895DF93CF93CDB7DEB72997AB
:103C00000FB6F894DEBF0FBECDBF9C838B837E833F
:103C10006D8358874F8329871982EB81FC81928DB0
:103C2000EB81FC81838D981740F58B819C812D81E0
:103C30003E81B90149850E94981FEB81FC81868DE8
:103C40008F3F89F4EB81FC818189882399F08B81F6
:103C50009C8141960E94DC29882361F0EF81F885E0
:103C600081E0808307C0EB81FC81868D8F5FEB81D3
:103C7000FC81868F81E08A8301C01A828A8129961D
:103C80000FB6F894DEBF0FBECDBFCF91DF91089580
:103C9000DF93CF93CDB7DEB72E970FB6F894DEBF84
:103CA0000FBECDBF98878F837A8769875C874B87E4
:103CB0002D871B820FB6F8940F92EF81F885828DC5
:103CC000882309F43FC0EF81F885868197819A8324
:103CD00089838F81988529853A85B9010E942D2095
:103CE0008D858823B1F4EF81F885828D8150EF8135
:103CF000F885828FEF81F88580858823F1F08F81A8
:103D0000988508960E94DC298130B9F40E94A11B95
:103D100014C0EF81F88589819A8197838683EF812A
:103D2000F8858189882349F08F81988541960E9482
:103D3000DC29882311F00E94A11B0F900FBE81E0A7
:103D40008E875CC08B859C85009721F40F900FBEF9
:103D50001E8654C08B81882331F4CE0104960E94C4
:103D6000442A81E08B830F900FBE0E94A0270FB6DC
:103D7000F8940F92EF81F885858D8F3F19F4EF81CC
:103D8000F885158EEF81F885868D8F3F19F4EF81C8
:103D9000F885168E0F900FBECE0104969E01255F0A
:103DA0003F4FB9010E945D2A882309F58F819885CC
:103DB0000E94C9208823A1F08F81988541962B8588
:103DC0003C85B9010E94A6298F8198850E947520A3
:103DD0000E94AC27882309F06DCF0E94A11B6ACFF7
:103DE0008F8198850E9475200E94AC2763CF8F81B8
:103DF00098850E9475200E94AC271E868E852E967F
:103E00000FB6F894DEBF0FBECDBFCF91DF910895FE
:103E1000DF93CF93CDB7DEB728970FB6F894DEBF08
:103E20000FBECDBF9C838B837E836D8358874F836A
:103E30001982EB81FC81828D882371F18B819C81B9
:103E40002D813E81B9010E942D20EB81FC81828D64
:103E50008150EB81FC81828FEB81FC81858D8F3FCE
:103E600089F4EB81FC818085882399F08B819C818A
:103E700008960E94DC29882361F0EF81F88581E0B3
:103E8000808307C0EB81FC81858D8F5FEB81FC8196
:103E9000858F81E08A8301C01A828A8128960FB6B5
:103EA000F894DEBF0FBECDBFCF91DF910895DF93B1
:103EB000CF9300D00F92CDB7DEB79B838A830FB626
:103EC000F8940F92EA81FB81828D89830F900FBE57
:103ED00089810F900F900F90CF91DF910895DF931C
:103EE000CF9300D00F92CDB7DEB79B838A83EA8150
:103EF000FB81828D898389810F900F900F90CF91E4
:103F0000DF910895DF93CF9300D0CDB7DEB79A83CA
:103F10008983E981FA81808191810E94C01789811A
:103F20009A810E94C0170F900F90CF91DF91089552
:103F3000DF93CF9300D000D00F92CDB7DEB79A8336
:103F400089837C836B834D83E981FA81848D882307
:103F500009F474C08D81882399F5E981FA8164811F
:103F60007581E981FA81848D482F50E02B813C8155
:103F7000CB01B9010E94982EE981FA812481358113
:103F8000E981FA81848D882F90E0820F931FE98167
:103F9000FA8195838483E981FA8124813581E981DD
:103FA000FA81828193812817390708F447C0E98193
:103FB000FA8180819181E981FA81958384833EC071
:103FC000E981FA8166817781E981FA81848D482FC0
:103FD00050E02B813C81CB01B9010E94982EE981F0
:103FE000FA8126813781E981FA81848D882F90E0DA
:103FF000909581959F4F820F931FE981FA81978356
:104000008683E981FA8126813781E981FA8180817D
:1040100091812817390790F4E981FA81228133814F
:10402000E981FA81848D882F90E0909581959F4F4A
:10403000820F931FE981FA8197838683E981FA8150
:10404000828D8F5FE981FA81828F0F900F900F90A0
:104050000F900F90CF91DF910895DF93CF9300D011
:1040600000D0CDB7DEB79A8389837C836B83E981E7
:10407000FA8180819181009789F1E981FA81268115
:104080003781E981FA81848D882F90E0820F931F18
:10409000E981FA8197838683E981FA8126813781D4
:1040A000E981FA81828193812817390740F0E981FB
:1040B000FA8180819181E981FA8197838683E98100
:1040C000FA8146815781E981FA81848D282F30E079
:1040D0008B819C81BA01A9010E94982E0F900F90AC
:1040E0000F900F90CF91DF910895DF93CF9300D081
:1040F000CDB7DEB79A8389830FB6F8940F9215C0B7
:10410000E981FA8181898823A9F089819A81419680
:104110000E94DC29882311F00E94BA2AE981FA81E1
:10412000868D8150E981FA81868FE981FA81868DB9
:10413000181634F3E981FA818FEF868F0F900FBE46
:104140000FB6F8940F9215C0E981FA818085882313
:10415000A9F089819A8108960E94DC29882311F0B0
:104160000E94BA2AE981FA81858D8150E981FA811C
:10417000858FE981FA81858D181634F3E981FA81FA
:104180008FEF858F0F900FBE0F900F90CF91DF9123
:104190000895DF93CF9300D00F92CDB7DEB79B8306
:1041A0008A830FB6F8940F92EA81FB81828D19827F
:1041B000882311F481E089830F900FBE89810F90CD
:1041C0000F900F90CF91DF910895DF93CF9300D0A0
:1041D0000F92CDB7DEB79B838A83EA81FB81828D04
:1041E0001982882311F481E0898389810F900F90CF
:1041F0000F90CF91DF910895DF93CF9300D00F926E
:10420000CDB7DEB79B838A830FB6F8940F92EA810D
:10421000FB81928DEA81FB81838D1982981711F4BD
:1042200081E089830F900FBE89810F900F900F90CE
:10423000CF91DF910895DF93CF9300D00F92CDB748
:10424000DEB79B838A83EA81FB81928DEA81FB81C1
:10425000838D1982981711F481E0898389810F90E9
:104260000F900F90CF91DF910895DF93CF93CDB74B
:10427000DEB72A970FB6F894DEBF0FBECDBF6983B5
:104280007A838B839C835E834D838D819E8199236A
:104290000CF03EC069817A818B819C8120E030E006
:1042A00040E050E00E94B42C882349F480E090E084
:1042B000A0E0B0E08F839887A987BA8762C08D811C
:1042C0009E819C012095309589819A81AB81BC812A
:1042D000BC01CD01A9010E943521DC01CB01BC014B
:1042E000CD0129813A814B815C810E94022EDC0143
:1042F000CB019C01AD0160E070E080E89FE30E948B
:10430000B82CDC01CB018F839887A987BA8739C085
:104310008D819E81009749F480E090E0A0E8BFE3A2
:104320008F839887A987BA872CC08D819E81813021
:10433000910549F489819A81AB81BC818F839887EB
:10434000A987BA871EC08D819E819C012150304073
:1043500089819A81AB81BC81BC01CD01A9010E94F8
:104360003521DC01CB01BC01CD0129813A814B8192
:104370005C810E94022EDC01CB018F839887A98784
:10438000BA878F819885A985BA85BC01CD012A9607
:104390000FB6F894DEBF0FBECDBFCF91DF91089569
:1043A000DF93CF9300D000D0CDB7DEB79A83898357
:1043B00089819A811816190694F489819A81019746
:1043C0000E94D0219C0189819A81289FA001299F68
:1043D000500D389F500D11245C834B8304C081E045
:1043E00090E09C838B838B819C810F900F900F902A
:1043F0000F90CF91DF910895EF92FF920F931F934B
:10440000DF93CF93CDB7DEB72E970FB6F894DEBF0C
:104410000FBECDBF6B877C878D879E8710C06B8555
:104420007C858D859E8520E030E044EB53E40E943E
:104430004F2CDC01CB018B879C87AD87BE876B85BA
:104440007C858D859E8520E030E044EB53E40E941E
:10445000FE2D181624F310C06B857C858D859E85F6
:1044600020E030E044EB53E40E94502CDC01CB010F
:104470008B879C87AD87BE876B857C858D859E8568
:1044800020E030E044EB53EC0E94B42C882324F36A
:104490006B857C858D859E8520ED3FE049E450E469
:1044A0000E94022EDC01CB01BC01CD0120E030E0F6
:1044B00044E353E40E94B82CDC01CB018F8398873E
:1044C000A987BA8780E090E0A0E0B0E08B839C836E
:1044D000AD83BE831A8219824FC029813A8160E080
:1044E00070E080E89FEBA9010E9435217B018C01DF
:1044F00089819A81880F991F9C012F5F3F4F8F817F
:104500009885A985BA85BC01CD01A9010E943521F4
:104510009B01AC01C801B7010E94022EDC01CB0156
:104520007C018D0189819A81880F991F01960E94D3
:10453000D021AA2797FDA095BA2FBC01CD010E94DA
:104540004E2D9B01AC01C801B7010E94B82CDC01C3
:10455000CB019C01AD016B817C818D819E810E948C
:10456000502CDC01CB018B839C83AD83BE8389817E
:104570009A8101969A83898389819A8187309105EE
:104580000CF4ABCF8B819C81AD81BE81BC01CD0190
:104590002E960FB6F894DEBF0FBECDBFCF91DF9140
:1045A0001F910F91FF90EF900895EF92FF920F935C
:1045B0001F93DF93CF93CDB7DEB72E970FB6F89446
:1045C000DEBF0FBECDBF6B877C878D879E8710C0F7
:1045D0006B857C858D859E8520E030E044EB53E43F
:1045E0000E944F2CDC01CB018B879C87AD87BE8757
:1045F0006B857C858D859E8520E030E044EB53E41F
:104600000E94FE2D181624F310C06B857C858D85C5
:104610009E8520E030E044EB53E40E94502CDC0106
:10462000CB018B879C87AD87BE876B857C858D850D
:104630009E8520E030E044EB53EC0E94B42C8823AC
:1046400024F36B857C858D859E8520ED3FE049E4D4
:1046500050E40E94022EDC01CB01BC01CD0120E020
:1046600030E044E353E40E94B82CDC01CB018F839B
:104670009887A987BA8780E090E0A0E0B0E08B83BC
:104680009C83AD83BE831A8219824CC029813A81F2
:1046900060E070E080E89FEBA9010E9435217B017A
:1046A0008C0189819A819C01220F331F8F8198850B
:1046B000A985BA85BC01CD01A9010E9435219B01C4
:1046C000AC01C801B7010E94022EDC01CB017C01C4
:1046D0008D0189819A81880F991F0E94D021AA2774
:1046E00097FDA095BA2FBC01CD010E944E2D9B01D4
:1046F000AC01C801B7010E94B82CDC01CB019C01C0
:10470000AD016B817C818D819E810E94502CDC01EA
:10471000CB018B839C83AD83BE8389819A81019673
:104720009A83898389819A81873091050CF4AECF71
:104730008B819C81AD81BE81BC01CD012E960FB6CF
:10474000F894DEBF0FBECDBFCF91DF911F910F91C7
:10475000FF90EF900895EF92FF920F931F93DF93D6
:10476000CF93CDB7DEB72B970FB6F894DEBF0FBE51
:10477000CDBF688779878A879B871F8268857985FF
:104780008A859B8520E030E040E85FE30E94FE2DB3
:10479000181694F460E070E080E89FE3288539857E
:1047A0004A855B850E94B82CDC01CB0188879987FC
:1047B000AA87BB8781E08F8380E090E0A0E0B0E033
:1047C0008B839C83AD83BE831A8219824DC029815D
:1047D0003A8160E070E080E89FEBA9010E943521FA
:1047E0007B018C0189819A81880F991F9C012F5F21
:1047F0003F4F88859985AA85BB85BC01CD01A9015C
:104800000E9435219B01AC01C801B7010E94022E14
:10481000DC01CB017C018D0189819A81880F991F70
:104820000196AA2797FDA095BA2FBC01CD010E9441
:104830004E2D9B01AC01C801B7010E94B82CDC01D0
:10484000CB019C01AD016B817C818D819E810E9499
:10485000502CDC01CB018B839C83AD83BE8389818B
:104860009A8101969A83898389819A8187309105FB
:104870000CF4ADCF8F81813081F460ED7FE089EC65
:104880009FE32B813C814D815E810E944F2CDC0196
:10489000CB018B839C83AD83BE838B819C81AD8157
:1048A000BE81BC01CD012B960FB6F894DEBF0FBEC2
:1048B000CDBFCF91DF911F910F91FF90EF900895A1
:1048C000DF93CF9300D00F92CDB7DEB78A836B838F
:1048D00081E0898309C099818A81989F802D112464
:1048E00089838B8181508B838B818823A1F7898178
:1048F0000F900F900F90CF91DF9108950F931F931A
:10490000DF93CF93CDB7DEB72F970FB6F894DEBF06
:104910000FBECDBF9F878E8780E090E0A0E0B0E023
:104920008A879B87AC87BD87198611C08985282F08
:1049300030E08E859F85FC01E20FF31F80818E326F
:1049400019F4898588870DC089858F5F8987898556
:10495000082F10E08E859F850E94A82E0817190742
:1049600028F388858F838F8181508F83198638C083
:104970008985282F30E08E859F85FC01E20FF31F8B
:104980008081882F90E08C01005310408AE06F8175
:104990000E946024882F90E09C01029FC001039F29
:1049A000900D129F900D1124AA2797FDA095BA2F64
:1049B000BC01CD010E944E2D9B01AC016A857B8517
:1049C0008C859D850E94502CDC01CB018A879B87BA
:1049D000AC87BD878F8181508F8389858F5F898761
:1049E00099858885981720F288858F8381E08E834A
:1049F00080E090E0A0E0B0E089839A83AB83BC8341
:104A00008F818F5F8D8335C08D81282F30E08E851B
:104A10009F85FC01E20FF31F8081882F90E08C01BD
:104A2000005310408AE06E810E946024282F30E0FD
:104A3000C801B9010E94712ECB01AA2797FDA0954C
:104A4000BA2FBC01CD010E944E2D9B01AC016981A2
:104A50007A818B819C810E94502CDC01CB0189835F
:104A60009A83AB83BC838E818F5F8E838D818F5FB2
:104A70008D838D81082F10E08E859F850E94A82E42
:104A80000817190708F26A857B858C859D85298121
:104A90003A814B815C810E94502CDC01CB018A87DA
:104AA0009B87AC87BD878A859B85AC85BD85BC010E
:104AB000CD012F960FB6F894DEBF0FBECDBFCF91BC
:104AC000DF911F910F910895AF92BF92CF92DF9225
:104AD000EF92FF920F931F93DF93CF93CDB7DEB783
:104AE00064970FB6F894DEBF0FBECDBF9F838E8351
:104AF000798768875B874A873D872C870E87F88A86
:104B0000EF86DA8AC98ABC8AAB8A8A859B8529891D
:104B10003A89B9010E94E92B9C838B838B819C810C
:104B2000009709F499C0EB81FC812789308D8A8533
:104B30009B850197820F931F9A8389838B819C8128
:104B400028853985EB89FC89AA85BB85B9014E8505
:104B50009F018D010E94CE2A89819A812E813F81F9
:104B60004C855D85B9010E94E219EB81FC8191833E
:104B700080838F859889009731F0EF85F8898B8144
:104B80009C81918380830FB6F8940F928091A70344
:104B90008F5F8093A7038091A4039091A503009752
:104BA00069F48B819C819093A5038093A4038091E9
:104BB000A7038130A9F40E94252B12C08091AC0379
:104BC000882371F4E091A403F091A50396898E8562
:104BD000891730F08B819C819093A5038093A40367
:104BE000EB81FC8196898091AA03891728F4EB81D7
:104BF000FC8186898093AA038091B1038F5F8093A3
:104C0000B103EB81FC8196898091AB03891728F46D
:104C1000EB81FC8186898093AB03EB81FC818689E3
:104C2000282F30E0C901880F991F880F991F880F1E
:104C3000991F820F931FAC014E545C4F8B819C8156
:104C40009C012E5F3F4FCA01B9010E94D31881E039
:104C50008D830F900FBE02C08FEF8D838D818130C9
:104C600071F48091AC03882351F0E091A403F0919A
:104C7000A50396898E85981710F40E94A11B8D813B
:104C800064960FB6F894DEBF0FBECDBFCF91DF9113
:104C90001F910F91FF90EF90DF90CF90BF90AF905A
:104CA0000895DF93CF9300D000D000D0CDB7DEB70A
:104CB0009C838B830FB6F8940F922091A4033091BC
:104CC000A5038B819C818217930711F41C821B82A0
:104CD0008B819C81009739F48091A4039091A50366
:104CE0009E838D8304C08B819C819E838D838D8167
:104CF0009E819A83898389819A8102960E948B1969
:104D0000E981FA8184899589009729F089819A81BE
:104D10000C960E948B1989819A819C012E5F3F4FCE
:104D20008CEE93E0B9010E94D3188091A6038F5FA7
:104D30008093A6038091B1038F5F8093B1030F909E
:104D40000FBE8091AC03882331F08B819C8100974A
:104D500011F40E94A11B26960FB6F894DEBF0FBE79
:104D6000CDBFCF91DF910895DF93CF93CDB7DEB75D
:104D700028970FB6F894DEBF0FBECDBF9E838D83FC
:104D800078876F8319820E94A027ED81FE812081A0
:104D900031818F819885820F931F9C838B83ED8156
:104DA000FE81208131818091A8039091A90382170F
:104DB0009307A8F4ED81FE81208131818B819C8154
:104DC0008217930700F52091A8033091A9038B81E6
:104DD0009C8128173907B8F481E0898314C0ED81DC
:104DE000FE81208131818B819C818217930748F05D
:104DF0002091A8033091A9038B819C812817390742
:104E000010F481E08983ED81FE818B819C81918307
:104E100080838981882359F08091A4039091A50310
:104E200002960E948B198B819C810E94A02B0E946C
:104E3000AC278A838A81882311F40E94A11B2896BB
:104E40000FB6F894DEBF0FBECDBFCF91DF910895AE
:104E5000DF93CF9300D000D00F92CDB7DEB79D8304
:104E60008C8319828C819D810097D1F00E94A027AC
:104E70002091A8033091A9038C819D81820F931FFB
:104E80009B838A838091A4039091A50302960E943C
:104E90008B198A819B810E94A02B0E94AC27898359
:104EA0008981882311F40E94A11B0F900F900F900D
:104EB0000F900F90CF91DF910895AF92BF92CF9254
:104EC000DF92EF92FF920F93DF93CF930F92CDB7C4
:104ED000DEB720E031E084EC9AE2B90145E550E02C
:104EE00020E030E000E0EE24FF24CC24DD24AA24DE
:104EF000BB240E94642589838981813051F4F89410
:104F000081E08093AC031092A9031092A8030E9441
:104F1000651B0F90CF91DF910F91FF90EF90DF9085
:104F2000CF90BF90AF900895DF93CF93CDB7DEB70A
:104F3000F8941092AC030E949A1BCF91DF910895D0
:104F4000DF93CF93CDB7DEB78091AD038F5F8093B2
:104F5000AD03CF91DF910895DF93CF9300D000D0C0
:104F6000CDB7DEB71A820FB6F8940F928091AD03D9
:104F700081508093AD038091AD03882309F06CC00C
:104F80008091A703882309F467C0198241C0E0918A
:104F9000E803F091E903868197819C838B838B8161
:104FA0009C810C960E948B198B819C8102960E9499
:104FB0008B19EB81FC8196898091AB03891728F4CA
:104FC000EB81FC8186898093AB03EB81FC81868930
:104FD000282F30E0C901880F991F880F991F880F6B
:104FE000991F820F931F8E549C4F2B813C812E5F03
:104FF0003F4FB9010E94D318EB81FC819689E09163
:10500000A403F091A5038689981710F081E08983A5
:105010008091E303882309F0BACF8091AE038823FF
:1050200071F007C00E946B288091AE03815080937D
:10503000AE038091AE038823A9F781E0898389813B
:10504000813021F08091AF03813031F481E08A8397
:105050001092AF030E94A11B0F900FBE8A810F9088
:105060000F900F900F90CF91DF910895DF93CF9322
:1050700000D0CDB7DEB70FB6F8940F928091A80399
:105080009091A9039A8389830F900FBE89819A8199
:105090000F900F90CF91DF910895DF93CF9300D0C1
:1050A0000F92CDB7DEB719828091A8039091A90322
:1050B0009B838A838A819B810F900F900F90CF9161
:1050C000DF910895DF93CF93CDB7DEB78091A7032B
:1050D000CF91DF910895DF93CF9300D000D000D01F
:1050E000CDB7DEB78091AD03882309F0BBC08091B6
:1050F000A8039091A90301969093A9038093A80314
:105100008091A8039091A9030097D1F58091DF03C6
:105110009091E0039C838B838091E1039091E20363
:105120009093E0038093DF038B819C819093E20353
:105130008093E1038091B0038F5F8093B003E0918F
:10514000DF03F091E0038081882339F48FEF9FEF34
:1051500090930E0180930D0113C0E091DF03F09155
:10516000E0030580F681E02D868197819E838D8303
:10517000ED81FE818281938190930E0180930D01D8
:105180002091A8033091A90380910D0190910E0107
:105190002817390708F46BC0E091DF03F091E003B2
:1051A0008081882339F48FEF9FEF90930E018093D5
:1051B0000D015DC0E091DF03F091E0030580F68111
:1051C000E02D868197819E838D83ED81FE81828192
:1051D00093819A8389832091A8033091A9038981BF
:1051E0009A812817390738F489819A8190930E01A2
:1051F00080930D013CC08D819E8102960E948B1987
:10520000ED81FE8184899589009729F08D819E81A9
:105210000C960E948B19ED81FE8196898091AB03DB
:10522000891728F4ED81FE8186898093AB03ED8197
:10523000FE818689282F30E0C901880F991F880FC9
:10524000991F880F991F820F931FAC014E545C4F1A
:105250008D819E819C012E5F3F4FCA01B9010E9442
:10526000D3189ACF8091AE038F5F8093AE032696BA
:105270000FB6F894DEBF0FBECDBFCF91DF9108957A
:10528000DF93CF9300D0CDB7DEB78091AD038823F5
:1052900049F081E08093AF0354C08091AB0381500B
:1052A0008093AB038091AB03282F30E0C901880FB6
:1052B000991F880F991F880F991F820F931FFC0158
:1052C000EE54FC4F8081882341F38091AB03282F5B
:1052D00030E0C901880F991F880F991F880F991F07
:1052E000820F931F8E549C4F9A838983E981FA81A0
:1052F0000180F281E02D82819381E981FA8192839C
:105300008183E981FA812181328189819A810396A1
:105310002817390759F4E981FA810180F281E02DDB
:1053200082819381E981FA8192838183E981FA8183
:105330000180F281E02D868197819093A50380936F
:10534000A4030F900F90CF91DF910895DF93CF9337
:1053500000D000D000D0CDB7DEB79C838B837E8396
:105360006D834B815C818091A4039091A5039C0186
:10537000245F3F4FCA01B9010E941F198091A40305
:105380009091A50302960E948B192091A803309159
:10539000A9038D819E81820F931F9A8389838981BE
:1053A0009A810E94A02B26960FB6F894DEBF0FBEFE
:1053B000CDBFCF91DF910895DF93CF9300D000D080
:1053C0000F92CDB7DEB79D838C83EC81FD81058084
:1053D000F681E02D868197819B838A838A819B81D8
:1053E0000C960E948B198091AD03882361F58A8108
:1053F0009B8102960E948B19EA81FB81968980919C
:10540000AB03891728F4EA81FB8186898093AB037B
:10541000EA81FB818689282F30E0C901880F991F16
:10542000880F991F880F991F820F931FAC014E544C
:105430005C4F8A819B819C012E5F3F4FCA01B9015D
:105440000E94D3180AC08A819B819C01245F3F4F30
:1054500083EE93E0B9010E94D318EA81FB8196891B
:10546000E091A403F091A5038689981718F081E0D4
:10547000898301C0198289810F900F900F900F903E
:105480000F90CF91DF910895DF93CF9300D0CDB7E8
:10549000DEB79A8389838091B003E981FA818083A2
:1054A0008091A8039091A903E981FA819283818375
:1054B0000F900F90CF91DF910895DF93CF9300D09D
:1054C00000D00F92CDB7DEB79B838A837D836C8338
:1054D0000FB6F8940F92EA81FB8190818091B0031E
:1054E000981771F0EA81FB81218132818091A803B4
:1054F0009091A9038217930718F081E089832FC048
:105500002091A8033091A903EA81FB8181819281D6
:10551000281B390BEC81FD81808191812817390787
:10552000E0F4EC81FD8140815181EA81FB812181A0
:1055300032818091A8039091A903B901681B790B6E
:10554000CB01840F951FEC81FD81918380838A813B
:105550009B810E94442A198202C081E089830F90B6
:105560000FBE89810F900F900F900F900F90CF91E9
:10557000DF910895DF93CF93CDB7DEB781E08093BD
:10558000AF03CF91DF910895DF93CF9300D0CDB7D4
:10559000DEB79A8389830E94622BFDCF0F931F93FE
:1055A000DF93CF93CDB7DEB729970FB6F894DEBF60
:1055B0000FBECDBF9A8389837C836B834D833F83EA
:1055C0002E831987088789819A8149962B813C818E
:1055D000B90144E150E00E94B12EE981FA8114A69C
:1055E0008D81833010F082E08D83E981FA818D8195
:1055F000868B89819A8102960E94C31889819A813B
:105600000C960E94C318E981FA8189819A81918759
:1056100080878D81282F30E083E090E0821B930B00
:10562000E981FA8195878487E981FA8189819A8164
:10563000938B828B29960FB6F894DEBF0FBECDBF39
:10564000CF91DF911F910F910895DF93CF930F9228
:10565000CDB7DEB7198213C08981282F30E0C90188
:10566000880F991F880F991F880F991F820F931F0A
:105670008E549C4F0E94991889818F5F89838981FC
:10568000833050F38DEC93E00E94991886ED93E0FF
:105690000E94991883EE93E00E9499188CEE93E093
:1056A0000E9499188DEC93E09093E0038093DF03C0
:1056B00086ED93E09093E2038093E1030F90CF9106
:1056C000DF910895DF93CF9300D00F92CDB7DEB76F
:1056D0008091A603882371F10E94A0278091EC039A
:1056E0001B82882311F481E08B830E94AC278B817D
:1056F000882301F50FB6F8940F92E091F103F09131
:10570000F203868197819A83898389819A8102969F
:105710000E948B198091A70381508093A7038091E9
:10572000A60381508093A6030F900FBE89819A81B2
:105730000E94392C0F900F900F90CF91DF91089518
:10574000DF93CF9300D0CDB7DEB79A838983E09102
:10575000A403F091A50389819A8193838283209188
:10576000A8033091A90389819A818217930770F465
:105770008091E1039091E2032091A4033091A5036D
:105780002E5F3F4FB9010E941F191EC04091DF03D9
:105790005091E0038091A4039091A5039C012E5F9A
:1057A0003F4FCA01B9010E941F1920910D0130918C
:1057B0000E0189819A818217930730F489819A8139
:1057C00090930E0180930D010F900F90CF91DF9178
:1057D0000895DF93CF93CDB7DEB728970FB6F8942F
:1057E000DEBF0FBECDBF9C838B837E836D838DE236
:1057F00090E00E947A179A83898389819A81009721
:1058000069F18D819E81009739F48B819C810E9482
:105810007A1798878F8304C08D819E8198878F83A4
:10582000E981FA818F819885908F878BE981FA8150
:105830008789908D009739F489819A810E94C017D9
:105840001A8219820BC0E981FA818789908D2B8198
:105850003C8165EA70E0A9010E94A12E89819A81AC
:1058600028960FB6F894DEBF0FBECDBFCF91DF9163
:105870000895DF93CF9300D0CDB7DEB79A838983A5
:10588000E981FA818789908D0E94C01789819A8168
:105890000E94C0170F900F90CF91DF91089550583C
:1058A000BB27AA270ED070C161D130F066D120F09D
:1058B00031F49F3F11F41EF456C10EF4E095E7FB5E
:1058C0004CC1E92F72D180F3BA17620773078407BE
:1058D000950718F071F49EF58AC10EF4E0950B2E31
:1058E000BA2FA02D0B01B90190010C01CA01A00132
:1058F0001124FF27591B99F0593F50F4503E68F18D
:105900001A16F040A22F232F342F4427585FF3CFCD
:10591000469537952795A795F0405395C9F77EF49E
:105920001F16BA0B620B730B840BBAF09150A1F0E7
:10593000FF0FBB1F661F771F881FC2F70EC0BA0F6D
:10594000621F731F841F48F4879577956795B795F5
:10595000F7959E3F08F0B3CF9395880F08F09927ED
:10596000EE0F979587950895D4D008F481E00895B7
:105970000CD00AC102D140F0F9D030F021F45F3FE1
:1059800019F0EBC0511134C1EEC00FD198F3992337
:10599000C9F35523B1F3951B550BBB27AA276217F3
:1059A0007307840738F09F5F5F4F220F331F441F38
:1059B000AA1FA9F333D00E2E3AF0E0E830D0915070
:1059C0005040E695001CCAF729D0FE2F27D0660F5D
:1059D000771F881FBB1F261737074807AB07B0E89C
:1059E00009F0BB0B802DBF01FF2793585F4F2AF0B2
:1059F0009E3F510568F0B1C0FBC05F3FECF3983E9D
:105A0000DCF3869577956795B795F7959F5FC9F70E
:105A1000880F911D9695879597F90895E1E0660F97
:105A2000771F881FBB1F621773078407BA0720F010
:105A3000621B730B840BBA0BEE1F88F7E095089579
:105A4000BCD088F09F5790F0B92F9927B751A0F09C
:105A5000D1F0660F771F881F991F1AF0BA95C9F702
:105A600012C0B13081F0C3D0B1E00895C0C0672F3B
:105A7000782F8827B85F39F0B93FCCF386957795B2
:105A80006795B395D9F73EF490958095709561959B
:105A90007F4F8F4F9F4F0895E89409C097FB3EF4C6
:105AA00090958095709561957F4F8F4F9F4F99236B
:105AB000A9F0F92F96E9BB279395F69587957795E9
:105AC0006795B795F111F8CFFAF4BB0F11F460FFA9
:105AD0001BC06F5F7F4F8F4F9F4F16C0882311F001
