:100000000C9467000C9486000C9486000C94860077
:100010000C9486000C9486000C9486000C94860048
:100020000C9486000C9486000C9486000C94860038
:100030000C941C160C9486000C9486000C9486007C
:100040000C9486000C9486000C9486000C94860018
:100050000C9486000C9486000C9486000C94860008
:100060000C9486000C9486000C9486000C948600F8
:100070000C9486000C9486000C9486000C948600E8
:100080000C9486000C9486000C94860005A84CCD38
:10009000B2D44EB93836A9020C50B9918688083CC2
:1000A000A6AAAA2ABE000000803F0664EC1B3C04FE
:1000B000BC163E3BE5B93CC93C37C29E5A3D66047E
:1000C00098083EEA69AAAA3E000000803F00112479
:1000D0001FBECFEFD0E1DEBFCDBF11E0A0E0B1E0A9
:1000E000E4E9F8E400E00BBF02C007900D92AE30E7
:1000F000B107D9F713E0AEE0B1E001C01D92A43F13
:10010000B107E1F70E943F130C9448240C940000BF
:10011000EF92FF920F931F93DF93CF93CDB7DEB78C
:1001200060970FB6F894DEBF0FBECDBF988B8F8758
:100130008F8598899E878D878D859E85FC01E458E3
:10014000FF4F80819181A281B381ED85FE8524AD31
:1001500035AD46AD57ADBC01CD010E948B21DC0110
:10016000CB0189879A87AB87BC878D859E85FC01EB
:10017000E058FF4FE080F180028113818D859E85DC
:10018000FC01E05CFF4F2081318142815381C80135
:10019000B7010E948B21DC01CB018D839E83AF834D
:1001A000B8878D859E85FC01EC57FF4FE080F1807C
:1001B000028113818D859E85FC01EC5BFF4F2081C0
:1001C000318142815381C801B7010E948B21DC013A
:1001D000CB0189839A83AB83BC8380910501882FEF
:1001E00090E0AA2797FDA095BA2FBC01CD010E94EF
:1001F0005D22DC01CB01BC01CD0129853A854B850F
:100200005C850E942223DC01CB019C01AD018D8520
:100210009E85FC01E85BFF4F20833183428353833B
:1002200080910501882F90E0AA2797FDA095BA2F0D
:10023000BC01CD010E945D22DC01CB01BC01CD01DE
:100240002D813E814F8158850E942223DC01CB0104
:100250009C01AD018D859E85FC01E45BFF4F2083F1
:1002600031834283538380910501882F90E0AA2730
:1002700097FDA095BA2FBC01CD010E945D22DC0143
:10028000CB01BC01CD0129813A814B815C810E9467
:100290002223DC01CB019C01AD018D859E85FC01F3
:1002A000E05BFF4F208331834283538380910601BB
:1002B000882F90E0AA2797FDA095BA2FBC01CD0109
:1002C0000E945D227B018C018D859E85FC01E85B8F
:1002D000FF4F2081318142815381C801B7010E94C3
:1002E0002223DC01CB019C01AD018D859E85FC01A3
:1002F000E457FF4F2083318342835383809107016A
:10030000882F90E0AA2797FDA095BA2FBC01CD01B8
:100310000E945D227B018C018D859E85FC01E45B42
:10032000FF4F2081318142815381C801B7010E9472
:100330002223DC01CB019C01AD018D859E85FC0152
:10034000E057FF4F2083318342835383809108011C
:10035000882F90E0AA2797FDA095BA2FBC01CD0168
:100360000E945D227B018C018D859E85FC01E05BF6
:10037000FF4F2081318142815381C801B7010E9422
:100380002223DC01CB019C01AD018D859E85FC0102
:10039000EC56FF4F208331834283538381E090E00A
:1003A0000E94641CC9CEAF92BF92CF92DF92EF92AF
:1003B000FF920F931F93DF93CF93CDB7DEB7E897EC
:1003C0000FB6F894DEBF0FBECDBF98AF8FAB8FA92D
:1003D00098AD9EAB8DAB8FE692E1A3E8BAE389AB13
:1003E0009AABABABBCAB80910A01282F30E081E027
:1003F00090E0B9010E940224CB01AA2797FDA095A5
:10040000BA2FBC01CD010E945D22DC01CB018DA37E
:100410009EA3AFA3B8A780E090E0A0E8BFE389A3C4
:100420009AA3ABA3BCA3EDA9FEA984A195A1A6A103
:10043000B7A1BC01CD010E9485237B018C01EDA9F0
:10044000FEA980A591A5A2A5B3A5BC01CD010E94DE
:100450008B239B01AC01C801B7010E942223DC0160
:10046000CB018D8F9E8FAF8FB8A3EDA9FEA984A17C
:1004700095A1A6A1B7A1BC01CD010E94F021DC018C
:10048000CB01898F9A8FAB8FBC8F80E090E0A0E08A
:10049000B0E08D8B9E8BAF8BB88FEDA9FEA984A1A8
:1004A00095A1A6A1B7A1BC01CD010E94F0217B01BD
:1004B0008C01EDA9FEA980A591A5A2A5B3A5BC01BB
:1004C000CD010E94F0219B01AC01C801B7010E943F
:1004D000F321DC01CB01898B9A8BAB8BBC8BEDA913
:1004E000FEA984A195A1A6A1B7A1BC01CD010E943E
:1004F000F0217B018C01EDA9FEA980A591A5A2A503
:10050000B3A5BC01CD010E948B239B01AC01C801A6
:10051000B7010E942223DC01CB018D879E87AF8724
:10052000B88B8DA99EA9FC01E459FF4FE080F180B2
:100530000281138180910901882F90E0AA2797FDFD
:10054000A095BA2FBC01CD010E945D229B01AC0198
:10055000C801B7010E942223DC01CB017C018D017F
:100560008DA99EA9FC01E857FF4F2081318142816E
:100570005381C801B7010E94F321DC01CB018987B7
:100580009A87AB87BC87EDA9FEA984A195A1A6A1F6
:10059000B7A1BC01CD010E948523DC01CB01B0587D
:1005A0008D839E83AF83B8878DA99EA9FC01E059F6
:1005B000FF4FE080F1800281138180910901882F33
:1005C00090E0AA2797FDA095BA2FBC01CD010E940B
:1005D0005D229B01AC01C801B7010E942223DC010E
:1005E000CB017C018D018DA99EA9FC01E857FF4F2D
:1005F0002081318142815381C801B7010E94F321DA
:10060000DC01CB0189839A83AB83BC83EDA9FEA96E
:10061000A4ACB5ACC6ACD7AC8DA99EA9FC01E05C7E
:10062000FF4FE080F18002811381EDA9FEA984A132
:1006300095A1A6A1B7A1BC01CD010E9485239B0174
:10064000AC01C801B7010E942223DC01CB017C016F
:100650008D01EDA9FEA980A591A5A2A5B3A5BC0118
:10066000CD010E948B239B01AC01C801B7010E9400
:100670002223DC01CB019C01AD01C601B5010E9422
:100680008C21DC01CB015C016D018DA99EA9FC01CF
:10069000EC5BFF4FE080F18002811381EDA9FEA9A0
:1006A00084A195A1A6A1B7A1BC01CD010E94F02112
:1006B0009B01AC01C801B7010E942223DC01CB01E0
:1006C0007C018D01EDA9FEA980A591A5A2A5B3A5E8
:1006D000BC01CD010E948B239B01AC01C801B70175
:1006E0000E942223DC01CB019C01AD01C601B501B2
:1006F0000E948C21DC01CB01EDA9FEA980AB91AB5E
:10070000A2ABB3AB8DA99EA9FC01E05CFF4FE080DA
:10071000F18002811381EDA9FEA984A195A1A6A172
:10072000B7A1BC01CD010E94F0219B01AC01C80121
:10073000B7010E942223DC01CB015C016D018DA970
:100740009EA9FC01EC5BFF4FE080F18002811381E8
:10075000EDA9FEA984A195A1A6A1B7A1BC01CD01D7
:100760000E9485239B01AC01C801B7010E9422238E
:10077000DC01CB019C01AD01C601B5010E948B21BA
:10078000DC01CB01EDA9FEA984AB95ABA6ABB7AB61
:100790008DA99EA9FC01E05CFF4FE080F180028101
:1007A0001381EDA9FEA984A195A1A6A1B7A1BC01C1
:1007B000CD010E9485239B01AC01C801B7010E94B5
:1007C0002223DC01CB017C018D01EDA9FEA980A5CE
:1007D00091A5A2A5B3A5BC01CD010E94F0219B016A
:1007E000AC01C801B7010E94F321DC01CB015C011F
:1007F0006D018DA99EA9FC01EC5BFF4FE080F180AB
:1008000002811381EDA9FEA984A195A1A6A1B7A19A
:10081000BC01CD010E94F0219B01AC01C801B701D0
:100820000E942223DC01CB017C018D01EDA9FEA9F0
:1008300080A591A5A2A5B3A5BC01CD010E948523E9
:100840009B01AC01C801B7010E94F321DC01CB017F
:100850009C01AD01C601B5010E948C21DC01CB01D8
:10086000EDA9FEA980AF91AFA2AFB3AFEDA9FEA9EC
:10087000E4A0F5A006A117A1EDA9FEA980A991A960
:10088000A2A9B3A9BC01CD0129A93AA94BA95CA988
:100890000E942223DC01CB019C01AD01C801B701FC
:1008A0000E948C21DC01CB01EDA9FEA984A395A3B4
:1008B000A6A3B7A3EDA9FEA9E0A4F1A402A513A5E0
:1008C000EDA9FEA984A995A9A6A9B7A9BC01CD0146
:1008D00029A93AA94BA95CA90E942223DC01CB01DA
:1008E0009C01AD01C801B7010E948C21DC01CB0144
:1008F000EDA9FEA980A791A7A2A7B3A7EDA9FEA97C
:10090000E4A4F5A406A517A5EDA9FEA980AD91ADB7
:10091000A2ADB3ADBC01CD0129A93AA94BA95CA9EF
:100920000E942223DC01CB019C01AD01C801B7016B
:100930000E948C21DC01CB01EDA9FEA984A795A71B
:10094000A6A7B7A76D857E858F85988929853A8565
:100950004B855C850E948B21DC01CB01BC01CD0164
:100960002DA13EA14FA158A50E94F321DC01CB018E
:100970008DA79EA7AFA7B8AB6D817E818F8198852B
:1009800029813A814B815C810E948B21DC01CB0162
:10099000BC01CD012DA13EA14FA158A50E94F3217C
:1009A000DC01CB0189A79AA7ABA7BCA760E070E0E8
:1009B00080E89FE329893A894B895C890E94F32169
:1009C000DC01CB015C016D016D897E898F89988D79
:1009D0002DA53EA54FA558A90E942223DC01CB01DD
:1009E0007C018D0169A17AA18BA19CA129A53AA5C1
:1009F0004BA55CA50E942223DC01CB019C01AD012B
:100A0000C801B7010E948B21DC01CB019C01AD0123
:100A1000C601B5010E942223DC01CB019C01AD017E
:100A20008DA99EA9FC01E458FF4F208331834283A6
:100A3000538360E070E080E89FE329893A894B891D
:100A40005C890E94F321DC01CB015C016D01698DA1
:100A50007A8D8B8D9C8D2DA53EA54FA558A90E9402
:100A60002223DC01CB017C018D016D8D7E8D8F8D6C
:100A700098A129A53AA54BA55CA50E942223DC01DB
:100A8000CB019C01AD01C801B7010E948B21DC01A3
:100A9000CB019C01AD01C601B5010E942223DC01FE
:100AA000CB019C01AD018DA99EA9FC01E058FF4F2F
:100AB000208331834283538381E090E00E94641C51
:100AC0008ACCEF92FF920F931F93DF93CF9300D0C6
:100AD00000D0CDB7DEB79C838B838B819C819A83BA
:100AE000898380910501882F90E0AA2797FDA09522
:100AF000BA2FBC01CD010E945D227B018C0189814E
:100B00009A81FC01E858FF4F80819181A281B381D5
:100B1000E981FA8124A535A546A557A5BC01CD01DB
:100B20000E948B21DC01CB019C01AD01C801B70102
:100B30000E942223DC01CB019C01AD0189819A81B5
:100B4000FC01EC57FF4F208331834283538384E6BB
:100B500090E00E94641CC5CFAF92BF92CF92DF920B
:100B6000EF92FF920F931F93DF93CF93CDB7DEB732
:100B700028970FB6F894DEBF0FBECDBF98878F833E
:100B80008F8198859E838D83ED81FE8184A195A1BF
:100B9000A6A1B7A1BC01CD010E94F0217B018C016F
:100BA000ED81FE8180A591A5A2A5B3A5BC01CD01D3
:100BB0000E94F0219B01AC01C801B7010E94F32102
:100BC000DC01CB0189839A83AB83BC8380910501CF
:100BD000882F90E0AA2797FDA095BA2FBC01CD01E0
:100BE0000E945D227B018C018D819E81FC01E45A73
:100BF000FF4F80819181A281B381ED81FE812085AB
:100C0000318542855385BC01CD010E948B21DC01D9
:100C1000CB019C01AD01C801B7010E942223DC0178
:100C2000CB015C016D018091F303882F90E0AA272E
:100C300097FDA095BA2FBC01CD010E945D227B01DA
:100C40008C018D819E81FC01E859FF4F808191814B
:100C5000A281B381ED81FE81248935894689578936
:100C6000BC01CD010E948B21DC01CB019C01AD01B7
:100C7000C801B7010E942223DC01CB019C01AD0118
:100C8000C601B5010E948C21DC01CB019C01AD01A4
:100C90008D819E81FC01EC58FF4F2083318342837C
:100CA000538380910901882F90E0AA2797FDA09592
:100CB000BA2FBC01CD010E945D225B016C018D81C8
:100CC0009E81FC01EC58FF4FE080F180028113818E
:100CD00080910B01882F90E0AA2797FDA095BA2F4D
:100CE000BC01CD010E945D229B01AC01C801B7018E
:100CF0000E948B21DC01CB019C01AD01C601B50135
:100D00000E942223DC01CB01BC01CD0129813A8163
:100D10004B815C810E94F321DC01CB019C01AD0180
:100D20008D819E81FC01E857FF4F208331834283F0
:100D3000538384E690E00E94641C26CFAF92BF925A
:100D4000CF92DF92EF92FF920F931F93DF93CF9397
:100D500000D000D0CDB7DEB79C838B838B819C8184
:100D60009A83898380910501882F90E0AA2797FDB7
:100D7000A095BA2FBC01CD010E945D227B018C01A0
:100D800089819A81FC01EC5AFF4F80819181A28177
:100D9000B381E981FA812085318542855385BC0183
:100DA000CD010E948B21DC01CB019C01AD01C8016A
:100DB000B7010E942223DC01CB015C016D0180910F
:100DC000F303882F90E0AA2797FDA095BA2FBC01C6
:100DD000CD010E945D227B018C0189819A81FC01F9
:100DE000E05AFF4F80819181A281B381E981FA812C
:100DF0002485358546855785BC01CD010E948B2110
:100E0000DC01CB019C01AD01C801B7010E94222386
:100E1000DC01CB019C01AD01C601B5010E948C2112
:100E2000DC01CB019C01AD0189819A81FC01E4596F
:100E3000FF4F208331834283538380910501882FA4
:100E400090E0AA2797FDA095BA2FBC01CD010E9482
:100E50005D227B018C0189819A81FC01E85AFF4F58
:100E600080819181A281B381E981FA8120853185D8
:100E700042855385BC01CD010E948B21DC01CB0151
:100E80009C01AD01C801B7010E942223DC01CB0106
:100E90005C016D018091F303882F90E0AA2797FDF4
:100EA000A095BA2FBC01CD010E945D227B018C016F
:100EB00089819A81FC01EC59FF4F80819181A28147
:100EC000B381E981FA812089318942895389BC0142
:100ED000CD010E948B21DC01CB019C01AD01C80139
:100EE000B7010E942223DC01CB019C01AD01C601A8
:100EF000B5010E948C21DC01CB019C01AD018981EF
:100F00009A81FC01E059FF4F208331834283538350
:100F100084E690E00E94641C25CFDF93CF9300D03D
:100F200000D00F92CDB7DEB78A836B838A81869516
:100F30008695869589838981282F30E03D832C838F
:100F40008C819D818330910509F4BFC02C813D8146
:100F5000243031058CF48C819D818130910509F418
:100F600050C02C813D81223031050CF07CC08C8139
:100F70009D810097A1F070C12C813D812530310504
:100F800009F407C18C819D81853091050CF4CFC097
:100F90002C813D812630310509F42DC15DC18B8145
:100FA0008823B9F0AAE3B0E0EAE3F0E08081482FBB
:100FB0008A81882F90E09C012770307081E090E05A
:100FC000022E02C0880F991F0A94E2F7842B8C939B
:100FD00043C1AAE3B0E0EAE3F0E08081482F8A81D0
:100FE000882F90E09C012770307081E090E0022E05
:100FF00002C0880F991F0A94E2F7809584238C938E
:101000002BC18B818823B9F0A7E3B0E0E7E3F0E0E0
:101010008081482F8A81882F90E09C012770307052
:1010200081E090E0022E02C0880F991F0A94E2F737
:10103000842B8C9311C1A7E3B0E0E7E3F0E080815B
:10104000482F8A81882F90E09C012770307081E0C2
:1010500090E0022E02C0880F991F0A94E2F7809553
:1010600084238C93F9C08B818823B9F0A4E3B0E08A
:10107000E4E3F0E08081482F8A81882F90E09C0192
:101080002770307081E090E0022E02C0880F991F17
:101090000A94E2F7842B8C93DFC0A4E3B0E0E4E38E
:1010A000F0E08081482F8A81882F90E09C01277092
:1010B000307081E090E0022E02C0880F991F0A94E0
:1010C000E2F7809584238C93C7C08B818823B9F085
:1010D000A1E3B0E0E1E3F0E08081482F8A81882F2E
:1010E00090E09C012770307081E090E0022E02C0F9
:1010F000880F991F0A94E2F7842B8C93ADC0A1E36B
:10110000B0E0E1E3F0E08081482F8A81882F90E011
:101110009C012770307081E090E0022E02C0880FA1
:10112000991F0A94E2F7809584238C9395C08B8154
:101130008823B9F0A2E2B0E0E2E2F0E08081482F3B
:101140008A81882F90E09C012770307081E090E0C8
:10115000022E02C0880F991F0A94E2F7842B8C9309
:101160007BC0A2E2B0E0E2E2F0E08081482F8A8119
:10117000882F90E09C012770307081E090E0022E73
:1011800002C0880F991F0A94E2F7809584238C93FC
:1011900063C08B818823B9F0A1E6B0E0E1E6F0E01E
:1011A0008081482F8A81882F90E09C0127703070C1
:1011B00081E090E0022E02C0880F991F0A94E2F7A6
:1011C000842B8C9349C0A1E6B0E0E1E6F0E0808199
:1011D000482F8A81882F90E09C012770307081E031
:1011E00090E0022E02C0880F991F0A94E2F78095C2
:1011F00084238C9331C08B818823B9F0A4E6B0E0BE
:10120000E4E6F0E08081482F8A81882F90E09C01FD
:101210002770307081E090E0022E02C0880F991F85
:101220000A94E2F7842B8C9317C0A4E6B0E0E4E6BE
:10123000F0E08081482F8A81882F90E09C01277000
:10124000307081E090E0022E02C0880F991F0A944E
:10125000E2F7809584238C930F900F900F900F905E
:101260000F90CF91DF910895DF93CF9300D000D0FE
:101270000F92CDB7DEB78A836B838A818695869578
:10128000869589838981282F30E03D832C838C814A
:101290009D818330910509F4BFC02C813D812430AC
:1012A00031058CF48C819D818130910509F450C009
:1012B0002C813D81223031050CF07CC08C819D81D8
:1012C0000097A1F070C12C813D812530310509F4D2
:1012D00007C18C819D81853091050CF4CFC02C8194
:1012E0003D812630310509F42DC15DC18B818823F4
:1012F000B9F0ABE3B0E0EBE3F0E08081482F8A8106
:10130000882F90E09C012770307081E090E0022EE1
:1013100002C0880F991F0A94E2F7842B8C9343C173
:10132000ABE3B0E0EBE3F0E08081482F8A81882FC7
:1013300090E09C012770307081E090E0022E02C0A6
:10134000880F991F0A94E2F7809584238C932BC110
:101350008B818823B9F0A8E3B0E0E8E3F0E0808176
:10136000482F8A81882F90E09C012770307081E09F
:1013700090E0022E02C0880F991F0A94E2F7842B96
:101380008C9311C1A8E3B0E0E8E3F0E08081482F3E
:101390008A81882F90E09C012770307081E090E076
:1013A000022E02C0880F991F0A94E2F780958423C9
:1013B0008C93F9C08B818823B9F0A5E3B0E0E5E315
:1013C000F0E08081482F8A81882F90E09C0127706F
:1013D000307081E090E0022E02C0880F991F0A94BD
:1013E000E2F7842B8C93DFC0A5E3B0E0E5E3F0E007
:1013F0008081482F8A81882F90E09C01277030706F
:1014000081E090E0022E02C0880F991F0A94E2F753
:10141000809584238C93C7C08B818823B9F0A2E385
:10142000B0E0E2E3F0E08081482F8A81882F90E0ED
:101430009C012770307081E090E0022E02C0880F7E
:10144000991F0A94E2F7842B8C93ADC0A2E3B0E01D
:10145000E2E3F0E08081482F8A81882F90E09C01B0
:101460002770307081E090E0022E02C0880F991F33
:101470000A94E2F7809584238C9395C08B8188230E
:10148000B9F0AEE2B0E0EEE2F0E08081482F8A8170
:10149000882F90E09C012770307081E090E0022E50
:1014A00002C0880F991F0A94E2F7842B8C937BC0AB
:1014B000AEE2B0E0EEE2F0E08081482F8A81882F32
:1014C00090E09C012770307081E090E0022E02C015
:1014D000880F991F0A94E2F7809584238C9363C048
:1014E0008B818823B9F0A2E6B0E0E2E6F0E08081EB
:1014F000482F8A81882F90E09C012770307081E00E
:1015000090E0022E02C0880F991F0A94E2F7842B04
:101510008C9349C0A2E6B0E0E2E6F0E08081482F7B
:101520008A81882F90E09C012770307081E090E0E4
:10153000022E02C0880F991F0A94E2F78095842337
:101540008C9331C08B818823B9F0A5E6B0E0E5E645
:10155000F0E08081482F8A81882F90E09C012770DD
:10156000307081E090E0022E02C0880F991F0A942B
:10157000E2F7842B8C9317C0A5E6B0E0E5E6F0E037
:101580008081482F8A81882F90E09C0127703070DD
:1015900081E090E0022E02C0880F991F0A94E2F7C2
:1015A000809584238C930F900F900F900F900F9045
:1015B000CF91DF910895DF93CF9300D000D000D07A
:1015C000CDB7DEB78A838A8186958695869589838D
:1015D0008981282F30E03D832C834C815D8143300D
:1015E000510509F467C08C819D818430910584F494
:1015F0002C813D812130310599F14C815D81423052
:1016000051050CF042C08C819D810097A1F0A6C0CD
:101610002C813D812530310509F476C04C815D81F6
:10162000453051050CF45BC08C819D81863091055D
:1016300009F47FC093C0E9E3F0E08081282F30E017
:101640008A81882F90E087709070A90102C055951B
:1016500047958A95E2F7CA01582F51705B837FC086
:10166000E6E3F0E08081282F30E08A81882F90E047
:1016700087709070A90102C0559547958A95E2F749
:10168000CA01582F51705B836AC0E3E3F0E08081A8
:10169000282F30E08A81882F90E087709070A90110
:1016A00002C0559547958A95E2F7CA01582F5170A7
:1016B0005B8355C0E0E3F0E08081282F30E08A8131
:1016C000882F90E087709070A90102C055954795CA
:1016D0008A95E2F7CA01582F51705B8340C0E3E25C
:1016E000F0E08081282F30E08A81882F90E0877099
:1016F0009070A90102C0559547958A95E2F7CA01F5
:10170000582F51705B832BC0E0E2F0E08081282FDE
:1017100030E08A81882F90E087709070A90102C024
:10172000559547958A95E2F7CA01582F51705B830A
:1017300016C0E3E6F0E08081282F30E08A81882F10
:1017400090E087709070A90102C0559547958A95E1
:10175000E2F7CA01582F51705B8301C002C08B8130
:101760008E838E8126960FB6F894DEBF0FBECDBF56
:10177000CF91DF910895DF93CF9300D0CDB7DEB73F
:10178000AFE4B0E0EFE4F0E08081826A8C93ABE8F4
:10179000B0E0EBE8F0E08081836A8C93EDE4F0E068
:1017A0008EE88083ECE4F0E08BE08083E8E8F0E012
:1017B0008EE88083E9E8F0E08BE0808383E59BE7B7
:1017C0009A838983EBE4F0E089819A81892F9927B4
:1017D0008083EAE4F0E089818083E9E4F0E08981B4
:1017E0009A81892F99278083E8E4F0E089818083BA
:1017F000E7E8F0E089819A81892F99278083E6E8DC
:10180000F0E089818083E5E8F0E089819A81892F81
:1018100099278083E4E8F0E089818083E7E4F0E0C1
:101820008FEF8083E6E4F0E08FEF8083A7E5B0E000
:10183000E7E5F0E0808184608C93ADE7B0E0EDE710
:10184000F0E0808184608C93AEE4B0E0EEE4F0E000
:1018500080818D618C93AAE8B0E0EAE8F0E08081B5
:101860008A618C930F900F90CF91DF910895DF9351
:10187000CF9300D000D0CDB7DEB79A838983EDE453
:10188000F0E08EE88083ECE4F0E08BE080830F9062
:101890000F900F900F90CF91DF910895DF93CF932A
:1018A00000D000D000D0CDB7DEB78B836C838B81A6
:1018B00094E6692F0E94F623282F30E080ED97E010
:1018C000AC01249FC001259F900D349F900D1124E1
:1018D00085529A469A8389838C81282F30E03E83F3
:1018E0002D834D815E814230510511F18D819E81A4
:1018F0008330910534F42D813E812130310561F032
:101900003BC04D815E8143305105F1F08D819E8158
:101910008430910529F130C0EBE4F0E089819A81AF
:10192000892F99278083EAE4F0E08981808365C06C
:10193000E9E4F0E089819A81892F99278083E8E49E
:10194000F0E08981808359C0E7E8F0E089819A81DD
:10195000892F99278083E6E8F0E0898180834DC054
:10196000E5E8F0E089819A81892F99278083E4E86E
:10197000F0E08981808341C08B8194E6692F0E94C9
:10198000F623282F30E080ED97E0AC01249FC001C2
:10199000259F900D349F900D112485529A469A836D
:1019A0008983EBE4F0E089819A81892F99278083EC
:1019B000EAE4F0E089818083E9E4F0E089819A81BA
:1019C000892F99278083E8E4F0E089818083E7E824
:1019D000F0E089819A81892F99278083E6E8F0E0F9
:1019E00089818083E5E8F0E089819A81892F9927B0
:1019F0008083E4E8F0E08981808326960FB6F8942E
:101A0000DEBF0FBECDBFCF91DF910895DF93CF939F
:101A1000CDB7DEB7EFE4F0E01082EEE4F0E0108244
:101A2000EBE8F0E01082EAE8F0E01082ECE4F0E0AD
:101A300011821082E8E8F0E011821082EAE4F0E01E
:101A400011821082E8E4F0E011821082E6E8F0E012
:101A500011821082E4E8F0E011821082E7E5F0E004
:101A60001082EDE7F0E01082CF91DF910895DF93CF
:101A7000CF93CDB7DEB7E1ECF0E088E18083E2EC14
:101A8000F0E086E88083E4ECF0E087E68083CF91A5
:101A9000DF910895DF93CF93CDB7DEB7E9ECF0E0A7
:101AA00088E18083EAECF0E086E88083ECECF0E00B
:101AB00087E68083CF91DF910895DF93CF93CDB7F1
:101AC000DEB7E1EDF0E088E18083E2EDF0E086E86A
:101AD0008083E4EDF0E087E68083CF91DF91089585
:101AE000DF93CF930F92CDB7DEB78983E6ECF0E0BA
:101AF00089818083E0ECF0E0808182958695877013
:101B0000882F90E0817090700097A1F3A0ECB0E076
:101B1000E0ECF0E0808180648C930F90CF91DF91B6
:101B20000895DF93CF93CDB7DEB7E0ECF0E080818E
:101B30008823DCF7E6ECF0E08081CF91DF91089517
:101B4000DF93CF930F92CDB7DEB78983EEECF0E051
:101B500089818083E8ECF0E08081829586958770AA
:101B6000882F90E0817090700097A1F3A8ECB0E00E
:101B7000E8ECF0E0808180648C930F90CF91DF914E
:101B80000895DF93CF93CDB7DEB7E8ECF0E0808126
:101B90008823DCF7EEECF0E08081CF91DF910895AF
:101BA000DF93CF930F92CDB7DEB78983E6EDF0E0F8
:101BB00089818083E0EDF0E0808182958695877051
:101BC000882F90E0817090700097A1F3A0EDB0E0B5
:101BD000E0EDF0E0808180648C930F90CF91DF91F5
:101BE0000895DF93CF93CDB7DEB7E0EDF0E08081CD
:101BF0008823DCF7E6EDF0E08081CF91DF91089556
:101C0000DF93CF9300D0CDB7DEB79A8389830AC024
:101C1000E981FA8180810E94700D89819A81019603
:101C20009A838983E981FA818081882389F70F90DB
:101C30000F90CF91DF910895DF93CF9300D0CDB770
:101C4000DEB79A8389830E94910DE981FA818083AE
:101C50000AC089819A8101969A8389830E94910D95
:101C6000E981FA818083E981FA818081833289F771
:101C7000E981FA8110820F900F90CF91DF91089542
:101C8000DF93CF9300D0CDB7DEB79A8389830AC0A4
:101C9000E981FA8180810E94A00D89819A81019653
:101CA0009A838983E981FA818081882389F70F905B
:101CB0000F90CF91DF910895DF93CF9300D0CDB7F0
:101CC000DEB79A8389830E94C10DE981FA818083FE
:101CD0000AC089819A8101969A8389830E94C10DE5
:101CE000E981FA818083E981FA818081833289F7F1
:101CF000E981FA8110820F900F90CF91DF910895C2
:101D0000DF93CF9300D0CDB7DEB79A8389830AC023
:101D1000E981FA8180810E94D00D89819A810196A2
:101D20009A838983E981FA818081882389F70F90DA
:101D30000F90CF91DF910895DF93CF9300D0CDB76F
:101D4000DEB79A8389830E94F10DE981FA8180834D
:101D50000AC089819A8101969A8389830E94F10D34
:101D6000E981FA818083E981FA8180818C3289F767
:101D7000E981FA8110820F900F90CF91DF91089541
:101D8000DF93CF93CDB7DEB727970FB6F894DEBFBA
:101D90000FBECDBF9D838C836E834F838AE190E01D
:101DA0000E9498119A83898389819A81009709F406
:101DB0006FC080910E0190910F01009741F48981CD
:101DC0009A8190930F0180930E010E9427118E81BA
:101DD000823010F081E08E83E981FA81118E108EBD
:101DE000E981FA818E81868BE981FA818F81878BE7
:101DF000E981FA818C819D819183808389819A8197
:101E000002960E942E1289819A810C960E942E12AF
:101E1000E981FA8189819A8191878087E981FA81B4
:101E200089819A81938B828B8E81282F30E083E089
:101E300090E0821B930BE981FA8195878487E98181
:101E4000FA81968980911001891728F4E981FA8135
:101E5000868980931001E981FA818689282F30E0F4
:101E6000C901880F991F880F991F880F991F820F2A
:101E7000931FAC01495E5E4F89819A819C012E5F60
:101E80003F4FCA01B9010E943E1281E08B8302C01C
:101E90008FEF8B838B8127960FB6F894DEBF0FBE32
:101EA000CDBFCF91DF910895DF93CF9300D000D0C5
:101EB00000D0CDB7DEB79C838B837E836D8320916A
:101EC0001101309112018B819C81820F931F9A83A3
:101ED000898380910E0190910F0102960E94F61263
:101EE000E0910E01F0910F0189819A8193838283A1
:101EF000209111013091120189819A8182179307F3
:101F000070F480913D0190913E0120910E0130913D
:101F10000F012E5F3F4FB9010E948A120DC08091C0
:101F20003B0190913C0120910E0130910F012E5FF9
:101F30003F4FB9010E948A128D819E81009761F006
:101F400080910E0190910F019C01245F3F4F8D8184
:101F50009E81B9010E948A1226960FB6F894DEBFC0
:101F60000FBECDBFCF91DF910895DF93CF9300D007
:101F7000CDB7DEB73AC0F894E0914401F091450145
:101F8000868197819A83898389819A810C960E94A0
:101F9000F612789489819A8102960E94F612E9815C
:101FA000FA81968980911001891728F4E981FA81D4
:101FB000868980931001E981FA818689282F30E093
:101FC000C901880F991F880F991F880F991F820FC9
:101FD000931FAC01495E5E4F89819A819C012E5FFF
:101FE0003F4FCA01B9010E943E1280913F018823F0
:101FF00009F0C1CF0F900F90CF91DF910895DF933B
:10200000CF9300D000D0CDB7DEB70E94721D2091D3
:10201000130130911401821B930B9093160180934E
:10202000150185C080911101909112010196909344
:102030001201809311018091150190911601019771
:1020400090931601809315018091110190911201D6
:10205000009709F064C080913B0190913C019A8304
:10206000898380913D0190913E0190933C01809342
:102070003B0189819A8190933E0180933D014FC03D
:10208000E0913B01F0913C010580F681E02D8681D5
:1020900097819C838B83EB81FC81228133818091AA
:1020A0001101909112018217930708F440C0F8942F
:1020B0008B819C8102960E94F612EB81FC818489BF
:1020C0009589009729F08B819C810C960E94F612CD
:1020D0007894EB81FC81968980911001891728F40E
:1020E000EB81FC81868980931001EB81FC818689DC
:1020F000282F30E0C901880F991F880F991F880F7A
:10210000991F820F931FAC01495E5E4F8B819C81AA
:102110009C012E5F3F4FCA01B9010E943E12E0911F
:102120003B01F0913C018081882309F0A9CF809187
:10213000150190911601009709F074CF809111015B
:102140009091120190931401809313010F900F90BE
:102150000F900F90CF91DF910895DF93CF9300D030
:10216000CDB7DEB70E94B50F0E94FF0F0AC0809165
:102170001001882309F466C080911001815080937A
:10218000100180911001282F30E0C901880F991F9C
:10219000880F991F880F991F820F931FFC01E95E1A
:1021A000FE4F8081882319F380911001282F30E0A1
:1021B000C901880F991F880F991F880F991F820FD7
:1021C000931F895E9E4F9A838983E981FA810180FA
:1021D000F281E02D82819381E981FA81928381836A
:1021E000E981FA812181328189819A8103962817B8
:1021F000390759F4E981FA810180F281E02D828169
:102200009381E981FA8192838183E981FA81018056
:10221000F281E02D8681978190930F0180930E01CA
:10222000E0910E01F0910F014081518180910E01EA
:1022300090910F01E0910E01F0910F012789622F1B
:10224000FA0109950F900F90CF91DF910895DF93D8
:10225000CF930F92CDB7DEB7198213C08981282F93
:1022600030E0C901880F991F880F991F880F991FA7
:10227000820F931F895E9E4F0E94041289818F5F97
:1022800089838981823050F389E291E00E940412AF
:1022900082E391E00E9404128FE391E00E94041215
:1022A00089E291E090933C0180933B0182E391E0CD
:1022B00090933E0180933D010F90CF91DF9108955F
:1022C000DF93CF9300D000D00F92CDB7DEB79D83C0
:1022D0008C83EC81FD810580F681E02D86819781DC
:1022E0009B838A838A819B810C960E94F6128A8145
:1022F0009B819C01245F3F4F8FE391E0B9010E94D5
:102300003E12EA81FB819689E0910E01F0910F0166
:102310008689981718F081E0898301C01982898124
:102320000F900F900F900F900F90CF91DF91089525
:10233000DF93CF9300D000D0CDB7DEB79C838B83E3
:102340001A8219820E94DC1C8091480190914901F7
:102350002B813C81820F931F22E08835920718F56C
:1023600020914801309149018B819C81280F391FB0
:10237000809148019091490182179307A0F48091C0
:10238000480190914901865B9E4F9A8389832091F1
:102390004801309149018B819C81820F931F90935A
:1023A0004901809348010E94E81C89819A810F901D
:1023B0000F900F900F90CF91DF910895DF93CF93FF
:1023C00000D0CDB7DEB79A8389830F900F90CF915D
:1023D000DF910895DF93CF93CDB7DEB71092490117
:1023E00010924801CF91DF910895DF93CF93CDB73D
:1023F000DEB7209148013091490188E592E0821BC7
:10240000930BCF91DF910895DF93CF9300D0CDB799
:10241000DEB79A83898389819A810396E981FA815B
:1024200092838183E981FA818FEF9FEF9483838385
:1024300089819A810396E981FA81968385838981CE
:102440009A810396E981FA8190878783E981FA81ED
:1024500010820F900F90CF91DF910895DF93CF936B
:1024600000D0CDB7DEB79A838983E981FA811186DE
:1024700010860F900F90CF91DF910895DF93CF9347
:1024800000D000D000D0CDB7DEB79C838B837E8395
:102490006D83EB81FC81818192819A838983E981BB
:1024A000FA8182819381ED81FE8193838283EB8126
:1024B000FC8181819281ED81FE8195838483E98114
:1024C000FA810280F381E02D8D819E819583848342
:1024D0008D819E81E981FA81938382838D819E81A2
:1024E000EB81FC8192838183ED81FE818B819C81D4
:1024F00091878087EB81FC8180818F5FEB81FC81FC
:10250000808326960FB6F894DEBF0FBECDBFCF9165
:10251000DF910895DF93CF93CDB7DEB728970FB63D
:10252000F894DEBF0FBECDBF9E838D8378876F8307
:10253000EF81F885808191819A83898389819A814D
:102540002FEF8F3F920739F4ED81FE8187819085CF
:102550009C838B8318C08D819E8103969C838B8383
:1025600006C0EB81FC81828193819C838B83EB810C
:10257000FC810280F381E02D2081318189819A8163
:102580008217930770F7EB81FC8182819381EF8141
:10259000F88593838283EF81F8850280F381E02DB3
:1025A0008F81988595838483EF81F8858B819C81C9
:1025B000958384838F819885EB81FC8193838283CB
:1025C000EF81F8858D819E8191878087ED81FE81E5
:1025D00080818F5FED81FE81808328960FB6F8940D
:1025E000DEBF0FBECDBFCF91DF910895DF93CF93B4
:1025F00000D000D0CDB7DEB79C838B83EB81FC810C
:10260000A281B381EB81FC818481958115969C9395
:102610008E931497EB81FC81A481B581EB81FC81C1
:102620008281938113969C938E931297EB81FC8108
:10263000808591859A838983E981FA81218132811C
:102640008B819C812817390741F4EB81FC818481BF
:102650009581E981FA8192838183EB81FC811186E6
:102660001086E981FA8180818150E981FA81808335
:102670000F900F900F900F90CF91DF910895DF93FF
:10268000CF93CDB7DEB7C859D0400FB6F894DEBFB0
:102690000FBECDBF0E94BB0BFFCFDF93CF93CDB753
:1026A000DEB728970FB6F894DEBF0FBECDBF9C8370
:1026B0008B837E836D8358874F83EB81FC8181E11F
:1026C00080838B819C8101979C838B83EB81FC8130
:1026D00082E280838B819C8101979C838B83EB8139
:1026E000FC8183E380838B819C8101979C838B8316
:1026F0008D819E819A8389838981EB81FC8180838E
:102700008B819C8101979C838B8389819A81892FFE
:1027100099279A8389838981EB81FC8180838B81CE
:102720009C8101979C838B83EB81FC8110828B8140
:102730009C8101979C838B83EB81FC8180E8808363
:102740008B819C8101979C838B83EB81FC81108220
:102750008B819C8101979C838B83EB81FC8182E040
:1027600080838B819C8101979C838B83EB81FC818F
:1027700083E080838B819C8101979C838B83EB8199
:10278000FC8184E080838B819C8101979C838B8377
:10279000EB81FC8185E080838B819C8101979C8308
:1027A0008B83EB81FC8186E080838B819C81019708
:1027B0009C838B83EB81FC8187E080838B819C8170
:1027C00001979C838B83EB81FC8188E080838B81E4
:1027D0009C8101979C838B83EB81FC8189E08083C2
:1027E0008B819C8101979C838B83EB81FC8180E1B1
:1027F00080838B819C8101979C838B83EB81FC81FF
:1028000081E180838B819C8101979C838B83EB8109
:10281000FC8182E180838B819C8101979C838B83E7
:10282000EB81FC8183E180838B819C8101979C8378
:102830008B83EB81FC8184E180838B819C81019778
:102840009C838B83EB81FC8185E180838B819C81E0
:1028500001979C838B83EB81FC8186E180838B8154
:102860009C8101979C838B83EB81FC8187E1808332
:102870008B819C8101979C838B83EB81FC8188E118
:1028800080838B819C8101979C838B83EB81FC816E
:1028900089E180838B819C8101979C838B83EB8171
:1028A000FC8180E280838B819C8101979C838B8358
:1028B000EB81FC8181E280838B819C8101979C83E9
:1028C0008B83EB81FC8182E280838B819C810197E9
:1028D0009C838B83EB81FC8183E280838B819C8151
:1028E00001979C838B838F8198859A8389838981C3
:1028F000EB81FC8180838B819C8101979C838B83FE
:1029000089819A81892F99279A8389838981EB818B
:10291000FC8180838B819C8101979C838B83EB81DD
:10292000FC8186E280838B819C8101979C838B83D1
:10293000EB81FC8187E280838B819C8101979C8362
:102940008B83EB81FC8188E280838B819C81019762
:102950009C838B83EB81FC8189E280838B819C81CA
:1029600001979C838B83EB81FC8180E380838B8147
:102970009C8101979C838B83EB81FC8181E3808325
:102980008B819C8101979C838B838B819C81289672
:102990000FB6F894DEBF0FBECDBFCF91DF91089583
:1029A000DF93CF93CDB7DEB70E94C015A091A203ED
:1029B000B091A303CD91CDBFDD91DEBFFF91EF912B
:1029C000DF91CF91BF91AF919F918F917F916F9147
:1029D0005F914F913F912F911F910F91FF90EF9039
:1029E000DF90CF90BF90AF909F908F907F906F902F
:1029F0005F904F903F902F901F900F900FBE0F90C1
:102A0000089581E0CF91DF910895DF93CF93CDB703
:102A1000DEB7CF91DF9108950F920FB6F8940F9221
:102A20001F9211242F923F924F925F926F927F924A
:102A30008F929F92AF92BF92CF92DF92EF92FF92CE
:102A40000F931F932F933F934F935F936F937F93B6
:102A50008F939F93AF93BF93CF93DF93EF93FF93A6
:102A6000A091A203B091A3030DB60D920EB60D92E4
:102A70000E947C1EA091A203B091A303CD91CDBF73
:102A8000DD91DEBFFF91EF91DF91CF91BF91AF91CB
:102A90009F918F917F916F915F914F913F912F9176
:102AA0001F910F91FF90EF90DF90CF90BF90AF906C
:102AB0009F908F907F906F905F904F903F902F905E
:102AC0001F900F900FBE0F9008950F920FB6F894BD
:102AD0000F921F9211242F923F924F925F926F920A
:102AE0007F928F929F92AF92BF92CF92DF92EF929E
:102AF000FF920F931F932F933F934F935F936F9387
:102B00007F938F939F93AF93BF93CF93DF93EF9375
:102B1000FF93A091A203B091A3030DB60D920EB640
:102B20000D920E94A71D0E947C1EA091A203B0914D
:102B3000A303CD91CDBFDD91DEBFFF91EF91DF917A
:102B4000CF91BF91AF919F918F917F916F915F9145
:102B50004F913F912F911F910F91FF90EF90DF9038
:102B6000CF90BF90AF909F908F907F906F905F902D
:102B70004F903F902F901F900F900FBE0F90089591
:102B8000DF93CF9300D000D000D0CDB7DEB780EE7A
:102B90009EE2A0E0B0E08B839C83AD83BE838B81FB
:102BA0009C81AD81BE81689415F8B695A7959795DF
:102BB00087951694D1F78B839C83AD83BE838B81DD
:102BC0009C81AD81BE810197A109B1098B839C8352
:102BD000AD83BE838B8189838B819C81AD81BE81D6
:102BE000892F9A2FAB2FBB278B839C83AD83BE830A
:102BF0008B818A83EBE4F0E08A818083EAE4F0E071
:102C0000898180838BE08983EEE4F0E08981808391
:102C1000E7E5F0E080818983898180618983E7E548
:102C2000F0E08981808326960FB6F894DEBF0FBE50
:102C3000CDBFCF91DF9108950E9465151895DF9360
:102C4000CF93CDB7DEB728970FB6F894DEBF0FBE8F
:102C5000CDBF8F8368871A8219828F81882309F4F8
:102C60008CC08FE190E00E9498119E838D838D81AE
:102C70009E81009709F481C08F81282F30E08885DC
:102C8000882F90E0AC01249FC001259F900D349FB8
:102C9000900D112401969C838B838B819C810E94D3
:102CA0009811ED81FE8191838083ED81FE81808189
:102CB0009181009709F45DC0ED81FE8140815181D1
:102CC0008F81282F30E08885882F90E0BC01269FD7
:102CD000C001279F900D369F900D1124840F951FE2
:102CE000ED81FE8193838283ED81FE81128EED81E1
:102CF000FE8180819181ED81FE8195838483ED81C8
:102D0000FE81408151818F81882F90E09C0121506C
:102D100030408885882F90E0BC01269FC001279F06
:102D2000900D369F900D1124840F951FED81FE812B
:102D300097838683ED81FE818F81838FED81FE8174
:102D40008885848FED81FE818FEF858FED81FE81F7
:102D50008FEF868F8D819E8108960E9404128D814F
:102D60009E8141960E9404128D819E819A8389835F
:102D700004C08D819E810E94DE1189819A812896EE
:102D80000FB6F894DEBF0FBECDBFCF91DF9108958F
:102D9000DF93CF93CDB7DEB72C970FB6F894DEBF95
:102DA0000FBECDBF9E838D8378876F835A874987F7
:102DB0002B8719820FB6F8940F92ED81FE81928DC8
:102DC000ED81FE81838D9817D8F48D819E812F81AE
:102DD0003885B9014B850E940319ED81FE818189F7
:102DE000882349F08D819E8141960E94181F813071
:102DF00011F40E940C150F900FBE81E08C875CC00F
:102E000089859A85009721F40F900FBE1C8654C0C7
:102E10008981882331F4CE0102960E94801F81E0CF
:102E200089830F900FBE0E94DC1C0FB6F8940F929E
:102E3000ED81FE81858D8F3F19F4ED81FE81158E28
:102E4000ED81FE81868D8F3F19F4ED81FE81168E16
:102E50000F900FBECE0102969E01275F3F4FB90132
:102E60000E94991F882309F58D819E810E94671A0F
:102E70008823A1F08D819E81089629853A85B90124
:102E80000E94E21E8D819E810E94E0190E94E81C32
:102E9000882309F08FCF0E940C158CCF8D819E81E5
:102EA0000E94E0190E94E81C85CF8D819E810E94BE
:102EB000E0190E94E81C1C868C852C960FB6F894AD
:102EC000DEBF0FBECDBFCF91DF910895DF93CF93CB
:102ED000CDB7DEB729970FB6F894DEBF0FBECDBFD2
:102EE0009C838B837E836D8358874F8329871982C8
:102EF000EB81FC81928DEB81FC81838D981740F5ED
:102F00008B819C812D813E81B90149850E940319E5
:102F1000EB81FC81868D8F3F89F4EB81FC81818977
:102F2000882399F08B819C8141960E94181F8823E9
:102F300061F0EF81F88581E0808307C0EB81FC813F
:102F4000868D8F5FEB81FC81868F81E08A8301C053
:102F50001A828A8129960FB6F894DEBF0FBECDBFC4
:102F6000CF91DF910895DF93CF93CDB7DEB72E9742
:102F70000FB6F894DEBF0FBECDBF98878F837A87D8
:102F800069875C874B872D871B820FB6F8940F9259
:102F9000EF81F885828D882309F43FC0EF81F885A1
:102FA000868197819A8389838F81988529853A853F
:102FB000B9010E9498198D858823B1F4EF81F885B5
:102FC000828D8150EF81F885828FEF81F885808531
:102FD0008823F1F08F81988508960E94181F813010
:102FE000B9F40E940C1514C0EF81F88589819A818B
:102FF00097838683EF81F8858189882349F08F81C3
:10300000988541960E94181F882311F00E940C1584
:103010000F900FBE81E08E875CC08B859C850097EA
:1030200021F40F900FBE1E8654C08B81882331F48B
:10303000CE0104960E94801F81E08B830F900FBE0B
:103040000E94DC1C0FB6F8940F92EF81F885858DF5
:103050008F3F19F4EF81F885158EEF81F885868D05
:103060008F3F19F4EF81F885168E0F900FBECE01B9
:1030700004969E01255F3F4FB9010E94991F882346
:1030800009F58F8198850E94341A8823A1F08F81D9
:10309000988541962B853C85B9010E94E21E8F815F
:1030A00098850E94E0190E94E81C882309F06DCFE2
:1030B0000E940C156ACF8F8198850E94E0190E94AA
:1030C000E81C63CF8F8198850E94E0190E94E81C5C
:1030D0001E868E852E960FB6F894DEBF0FBECDBF2E
:1030E000CF91DF910895DF93CF93CDB7DEB72897C7
:1030F0000FB6F894DEBF0FBECDBF9C838B837E835B
:103100006D8358874F831982EB81FC81828D8823E0
:1031100071F18B819C812D813E81B9010E949819AA
:10312000EB81FC81828D8150EB81FC81828FEB8170
:10313000FC81858D8F3F89F4EB81FC81808588231C
:1031400099F08B819C8108960E94181F882361F05A
:10315000EF81F88581E0808307C0EB81FC81858D5C
:103160008F5FEB81FC81858F81E08A8301C01A82A9
:103170008A8128960FB6F894DEBF0FBECDBFCF91DF
:10318000DF910895DF93CF9300D00F92CDB7DEB7D4
:103190009B838A830FB6F8940F92EA81FB81828D1C
:1031A00089830F900FBE89810F900F900F90CF9160
:1031B000DF910895DF93CF9300D00F92CDB7DEB7A4
:1031C0009B838A83EA81FB81828D898389810F9029
:1031D0000F900F90CF91DF910895DF93CF9300D0A0
:1031E000CDB7DEB79A838983E981FA8180819181A5
:1031F0000E94DE1189819A810E94DE110F900F904A
:10320000CF91DF910895DF93CF9300D000D00F923C
:10321000CDB7DEB79A8389837C836B834D83E98145
:10322000FA81848D882309F474C08D81882399F5EF
:10323000E981FA8164817581E981FA81848D482F61
:1032400050E02B813C81CB01B9010E942924E98106
:10325000FA8124813581E981FA81848D882F90E07B
:10326000820F931FE981FA8195838483E981FA8132
:1032700024813581E981FA81828193812817390778
:1032800008F447C0E981FA8180819181E981FA815E
:10329000958384833EC0E981FA8166817781E981E3
:1032A000FA81848D482F50E02B813C81CB01B901FC
:1032B0000E942924E981FA8126813781E981FA81F6
:1032C000848D882F90E0909581959F4F820F931F5A
:1032D000E981FA8197838683E981FA8126813781A2
:1032E000E981FA81808191812817390790F4E98179
:1032F000FA8122813381E981FA81848D882F90E0DF
:10330000909581959F4F820F931FE981FA81978352
:103310008683E981FA81828D8F5FE981FA81828FCC
:103320000F900F900F900F900F90CF91DF91089515
:10333000DF93CF9300D000D0CDB7DEB79A838983D7
:103340007C836B83E981FA8180819181009789F187
:10335000E981FA8126813781E981FA81848D882F7C
:1033600090E0820F931FE981FA8197838683E98138
:10337000FA8126813781E981FA8182819381281738
:10338000390740F0E981FA8180819181E981FA81F0
:1033900097838683E981FA8146815781E981FA81A1
:1033A000848D282F30E08B819C81BA01A9010E9475
:1033B00029240F900F900F900F90CF91DF910895D7
:1033C000DF93CF9300D0CDB7DEB79A8389830FB652
:1033D000F8940F9215C0E981FA8181898823A9F0B8
:1033E00089819A8141960E94181F882311F00E94BA
:1033F000F61FE981FA81868D8150E981FA81868FF5
:10340000E981FA81868D181634F3E981FA818FEF0C
:10341000868F0F900FBE0FB6F8940F9215C0E981FA
:10342000FA8180858823A9F089819A8108960E9473
:10343000181F882311F00E94F61FE981FA81858DFB
:103440008150E981FA81858FE981FA81858D18168D
:1034500034F3E981FA818FEF858F0F900FBE0F90C3
:103460000F90CF91DF910895DF93CF9300D00F920B
:10347000CDB7DEB79B838A830FB6F8940F92EA81AB
:10348000FB81828D1982882311F481E089830F905A
:103490000FBE89810F900F900F90CF91DF9108950B
:1034A000DF93CF9300D00F92CDB7DEB79B838A8393
:1034B000EA81FB81828D1982882311F481E089835E
:1034C00089810F900F900F90CF91DF910895DF9336
:1034D000CF9300D00F92CDB7DEB79B838A830FB610
:1034E000F8940F92EA81FB81928DEA81FB81838DB2
:1034F0001982981711F481E089830F900FBE89819A
:103500000F900F900F90CF91DF910895DF93CF939D
:1035100000D00F92CDB7DEB79B838A83EA81FB810F
:10352000928DEA81FB81838D1982981711F481E0D5
:10353000898389810F900F900F90CF91DF9108952B
:10354000AF92BF92CF92DF92EF92FF920F931F93B1
:10355000DF93CF93CDB7DEB764970FB6F894DEBF95
:103560000FBECDBF9F838E83798768875B874A872D
:103570003D872C870E87F88AEF86DA8AC98ABC8A4B
:10358000AB8A8A859B8529893A89B9010E942521C0
:103590009C838B838B819C81009709F499C0EB817C
:1035A000FC812789308D8A859B850197820F931F27
:1035B0009A8389838B819C8128853985EB89FC8955
:1035C000AA85BB85B9014E859F018D010E940A2005
:1035D00089819A812E813F814C855D85B9010E9448
:1035E0004D13EB81FC81918380838F8598890097AF
:1035F00031F0EF85F8898B819C81918380830FB6B0
:10360000F8940F928091A5038F5F8093A50380911A
:10361000A2039091A303009769F48B819C819093FE
:10362000A3038093A2038091A5038130A9F40E9493
:10363000612012C08091AA03882371F4E091A20353
:10364000F091A30396898E85891730F08B819C8138
:103650009093A3038093A203EB81FC8196898091D0
:10366000A803891728F4EB81FC8186898093A8033D
:103670008091AF038F5F8093AF03EB81FC819689CC
:103680008091A903891728F4EB81FC8186898093B6
:10369000A903EB81FC818689282F30E0C901880FBE
:1036A000991F880F991F880F991F820F931FAC01D4
:1036B00040555C4F8B819C819C012E5F3F4FCA011E
:1036C000B9010E943E1281E08D830F900FBE02C0AF
:1036D0008FEF8D838D81813071F48091AA038823CF
:1036E00051F0E091A203F091A30396898E8598177B
:1036F00010F40E940C158D8164960FB6F894DEBF0D
:103700000FBECDBFCF91DF911F910F91FF90EF9032
:10371000DF90CF90BF90AF900895DF93CF9300D00C
:1037200000D000D0CDB7DEB79C838B830FB6F89462
:103730000F922091A2033091A3038B819C81821769
:10374000930711F41C821B828B819C81009739F4B2
:103750008091A2039091A3039E838D8304C08B81EB
:103760009C819E838D838D819E819A8389838981AB
:103770009A8102960E94F612E981FA8184899589DC
:10378000009729F089819A810C960E94F61289810E
:103790009A819C012E5F3F4F8AEE93E0B9010E940F
:1037A0003E128091A4038F5F8093A4038091AF03A6
:1037B0008F5F8093AF030F900FBE8091AA03882381
:1037C00031F08B819C81009711F40E940C15269694
:1037D0000FB6F894DEBF0FBECDBFCF91DF91089535
:1037E000DF93CF93CDB7DEB728970FB6F894DEBF3F
:1037F0000FBECDBF9E838D8378876F8319820E9411
:10380000DC1CED81FE81208131818F819885820FC2
:10381000931F9C838B83ED81FE8120813181809178
:10382000A6039091A70382179307A8F4ED81FE8168
:10383000208131818B819C818217930700F5209133
:10384000A6033091A7038B819C8128173907B8F410
:1038500081E0898314C0ED81FE81208131818B81DB
:103860009C818217930748F02091A6033091A7030B
:103870008B819C812817390710F481E08983ED81C1
:10388000FE818B819C81918380838981882359F07B
:103890008091A2039091A30302960E94F6128B815D
:1038A0009C810E94DC200E94E81C8A838A818823F4
:1038B00011F40E940C1528960FB6F894DEBF0FBEC7
:1038C000CDBFCF91DF910895DF93CF9300D000D08B
:1038D0000F92CDB7DEB79D838C8319828C819D8139
:1038E0000097D1F00E94DC1C2091A6033091A70321
:1038F0008C819D81820F931F9B838A838091A20379
:103900009091A30302960E94F6128A819B810E94E5
:10391000DC200E94E81C89838981882311F40E949D
:103920000C150F900F900F900F900F90CF91DF918B
:103930000895AF92BF92CF92DF92EF92FF920F93D2
:10394000DF93CF930F92CDB7DEB720E031E080E078
:1039500090E2B90145E550E020E030E000E0EE24DF
:10396000FF24CC24DD24AA24BB240E94A01A89832E
:103970008981813051F4F89481E08093AA031092F8
:10398000A7031092A6030E94D0140F90CF91DF914D
:103990000F91FF90EF90DF90CF90BF90AF90089580
:1039A000DF93CF93CDB7DEB7F8941092AA030E94AD
:1039B0000515CF91DF910895DF93CF93CDB7DEB793
:1039C0008091AB038F5F8093AB03CF91DF9108951C
:1039D000DF93CF9300D000D0CDB7DEB71A820FB6F9
:1039E000F8940F928091AB0381508093AB03809148
:1039F000AB03882309F06CC08091A503882309F4E8
:103A000067C0198241C0E091E603F091E703868127
:103A100097819C838B838B819C810C960E94F612EC
:103A20008B819C8102960E94F612EB81FC81968923
:103A30008091A903891728F4EB81FC818689809302
:103A4000A903EB81FC818689282F30E0C901880F0A
:103A5000991F880F991F880F991F820F931F8055F8
:103A60009C4F2B813C812E5F3F4FB9010E943E123B
:103A7000EB81FC819689E091A203F091A3038689F2
:103A8000981710F081E089838091E103882309F081
:103A9000BACF8091AC03882371F007C00E94A71DA4
:103AA0008091AC0381508093AC038091AC03882358
:103AB000A9F781E089838981813021F08091AD036C
:103AC000813031F481E08A831092AD030E940C159D
:103AD0000F900FBE8A810F900F900F900F90CF9193
:103AE000DF910895DF93CF9300D0CDB7DEB70FB647
:103AF000F8940F928091A6039091A7039A838983EB
:103B00000F900FBE89819A810F900F90CF91DF9116
:103B10000895DF93CF9300D00F92CDB7DEB719820F
:103B20008091A6039091A7039B838A838A819B81BE
:103B30000F900F900F90CF91DF910895DF93CF9367
:103B4000CDB7DEB78091A503CF91DF910895DF93C4
:103B5000CF9300D000D000D0CDB7DEB78091AB03BB
:103B6000882309F0BBC08091A6039091A70301961A
:103B70009093A7038093A6038091A6039091A70337
:103B80000097D1F58091DD039091DE039C838B83B8
:103B90008091DF039091E0039093DE038093DD0337
:103BA0008B819C819093E0038093DF038091AE032F
:103BB0008F5F8093AE03E091DD03F091DE0380819F
:103BC000882339F48FEF9FEF90930D0180930C01C0
:103BD00013C0E091DD03F091DE030580F681E02D56
:103BE000868197819E838D83ED81FE818281938181
:103BF00090930D0180930C012091A6033091A703AF
:103C000080910C0190910D012817390708F46BC0C1
:103C1000E091DD03F091DE038081882339F48FEF9A
:103C20009FEF90930D0180930C015DC0E091DD0347
:103C3000F091DE030580F681E02D868197819E83D9
:103C40008D83ED81FE81828193819A838983209186
:103C5000A6033091A70389819A812817390738F480
:103C600089819A8190930D0180930C013CC08D81D4
:103C70009E8102960E94F612ED81FE8184899589CB
:103C8000009729F08D819E810C960E94F612ED819D
:103C9000FE8196898091A903891728F4ED81FE8120
:103CA00086898093A903ED81FE818689282F30E0E3
:103CB000C901880F991F880F991F880F991F820FBC
:103CC000931FAC0140555C4F8D819E819C012E5FFE
:103CD0003F4FCA01B9010E943E129ACF8091AC03B6
:103CE0008F5F8093AC0326960FB6F894DEBF0FBEAD
:103CF000CDBFCF91DF910895DF93CF9300D0CDB7A3
:103D0000DEB78091AB03882349F081E08093AD0357
:103D100054C08091A90381508093A9038091A90385
:103D2000282F30E0C901880F991F880F991F880F2D
:103D3000991F820F931FFC01E055FC4F808188235F
:103D400041F38091A903282F30E0C901880F991F02
:103D5000880F991F880F991F820F931F80559C4FC2
:103D60009A838983E981FA810180F281E02D828141
:103D70009381E981FA8192838183E981FA812181AA
:103D8000328189819A8103962817390759F4E9818C
:103D9000FA810180F281E02D82819381E981FA81AB
:103DA00092838183E981FA810180F281E02D86810D
:103DB00097819093A3038093A2030F900F90CF91CC
:103DC000DF910895DF93CF9300D000D000D0CDB71E
:103DD000DEB79C838B837E836D834B815C81809176
:103DE000A2039091A3039C01245F3F4FCA01B90134
:103DF0000E948A128091A2039091A30302960E94CE
:103E0000F6122091A6033091A7038D819E81820F27
:103E1000931F9A83898389819A810E94DC20269648
:103E20000FB6F894DEBF0FBECDBFCF91DF910895DE
:103E3000DF93CF9300D000D00F92CDB7DEB79D8334
:103E40008C83EC81FD810580F681E02D8681978150
:103E50009B838A838A819B810C960E94F6128091B3
:103E6000AB03882361F58A819B8102960E94F6123A
:103E7000EA81FB8196898091A903891728F4EA8158
:103E8000FB8186898093A903EA81FB818689282F9B
:103E900030E0C901880F991F880F991F880F991F5B
:103EA000820F931FAC0140555C4F8A819B819C011E
:103EB0002E5F3F4FCA01B9010E943E120AC08A819B
:103EC0009B819C01245F3F4F81EE93E0B9010E94EA
:103ED0003E12EA81FB819689E091A203F091A3034F
:103EE0008689981718F081E0898301C01982898139
:103EF0000F900F900F900F900F90CF91DF9108953A
:103F0000DF93CF9300D0CDB7DEB79A8389838091BA
:103F1000AE03E981FA8180838091A6039091A70383
:103F2000E981FA81928381830F900F90CF91DF9185
:103F30000895DF93CF9300D000D00F92CDB7DEB7B6
:103F40009B838A837D836C830FB6F8940F92EA81FA
:103F5000FB8190818091AE03981771F0EA81FB811B
:103F6000218132818091A6039091A7038217930744
:103F700018F081E089832FC02091A6033091A70318
:103F8000EA81FB8181819281281B390BEC81FD81C3
:103F90008081918128173907E0F4EC81FD8140810F
:103FA0005181EA81FB81218132818091A603909128
:103FB000A703B901681B790BCB01840F951FEC8116
:103FC000FD81918380838A819B810E94801F198259
:103FD00002C081E089830F900FBE89810F900F90FE
:103FE0000F900F900F90CF91DF910895DF93CF93B3
:103FF000CDB7DEB781E08093AD03CF91DF91089517
:10400000DF93CF9300D0CDB7DEB79A8389830E9428
:104010009E20FDCF0F931F93DF93CF93CDB7DEB7D5
:1040200029970FB6F894DEBF0FBECDBF9A83898360
:104030007C836B834D833F832E8319870887898117
:104040009A8149962B813C81B90144E150E00E945C
:104050003924E981FA8114A68D81833010F082E041
:104060008D83E981FA818D81868B89819A8102967F
:104070000E942E1289819A810C960E942E12E9814B
:10408000FA8189819A81918780878D81282F30E0FC
:1040900083E090E0821B930BE981FA819587848706
:1040A000E981FA8189819A81938B828B29960FB657
:1040B000F894DEBF0FBECDBFCF91DF911F910F915E
:1040C0000895DF93CF930F92CDB7DEB7198213C057
:1040D0008981282F30E0C901880F991F880F991F07
:1040E000880F991F820F931F80559C4F0E940412C6
:1040F00089818F5F89838981833050F38BEC93E0D2
:104100000E94041284ED93E00E94041281EE93E079
:104110000E9404128AEE93E00E9404128BEC93E05A
:104120009093DE038093DD0384ED93E09093E003AE
:104130008093DF030F90CF91DF910895DF93CF93AA
:1041400000D00F92CDB7DEB78091A403882371F120
:104150000E94DC1C8091EA031B82882311F481E019
:104160008B830E94E81C8B81882301F50FB6F8949D
:104170000F92E091EF03F091F003868197819A838B
:10418000898389819A8102960E94F6128091A50303
:1041900081508093A5038091A40381508093A40350
:1041A0000F900FBE89819A810E9475210F900F9008
:1041B0000F90CF91DF910895DF93CF9300D0CDB7CB
:1041C000DEB79A838983E091A203F091A3038981EA
:1041D0009A81938382832091A6033091A7038981DA
:1041E0009A818217930770F48091DF039091E00326
:1041F0002091A2033091A3032E5F3F4FB9010E948B
:104200008A121EC04091DD035091DE038091A2030B
:104210009091A3039C012E5F3F4FCA01B9010E94F8
:104220008A1220910C0130910D0189819A818217A7
:10423000930730F489819A8190930D0180930C014A
:104240000F900F90CF91DF910895DF93CF93CDB76B
:10425000DEB728970FB6F894DEBF0FBECDBF9C83A4
:104260008B837E836D838DE290E00E9498119A8308
:10427000898389819A81009769F18D819E81009758
:1042800039F48B819C810E94981198878F8304C098
:104290008D819E8198878F83E981FA818F819885AE
:1042A000908F878BE981FA818789908D009739F407
:1042B00089819A810E94DE111A8219820BC0E981DC
:1042C000FA818789908D2B813C8165EA70E0A90194
:1042D0000E94322489819A8128960FB6F894DEBF15
:1042E0000FBECDBFCF91DF910895DF93CF9300D064
:1042F000CDB7DEB79A838983E981FA818789908D6A
:104300000E94DE1189819A810E94DE110F900F9028
:10431000CF91DF9108955058BB27AA270ED047C1EF
:1043200010D130F015D120F031F49F3F11F41EF47C
:1043300005C10EF4E095E7FBFBC0E92F5AD180F3ED
:10434000BA17620773078407950718F071F49EF592
:1043500072C10EF4E0950B2EBA2FA02D0B01B901FE
:1043600090010C01CA01A0011124FF27591B99F0EB
:10437000593F50F4503E68F11A16F040A22F232FF7
:10438000342F4427585FF3CF469537952795A79547
:10439000F0405395C9F77EF41F16BA0B620B730BEE
:1043A000840BBAF09150A1F0FF0FBB1F661F771F5F
:1043B000881FC2F70EC0BA0F621F731F841F48F414
:1043C000879577956795B795F7959E3F08F0B3CF9A
:1043D0009395880F08F09927EE0F97958795089584
:1043E000BFD0E395F5C00CD0E2C0B2D040F0A9D068
:1043F00030F021F45F3F19F09BC051111DC19EC0E8
:10440000F8D098F39923C9F35523B1F3951B550BB5
:10441000BB27AA2762177307840738F09F5F5F4F97
:10442000220F331F441FAA1FA9F333D00E2E3AF0D8
:10443000E0E830D091505040E695001CCAF729D0F2
:10444000FE2F27D0660F771F881FBB1F2617370741
:104450004807AB07B0E809F0BB0B802DBF01FF2771
:1044600093585F4F2AF09E3F510568F061C0E4C049
:104470005F3FECF3983EDCF3869577956795B795AB
:10448000F7959F5FC9F7880F911D9695879597F9C6
:104490000895E1E0660F771F881FBB1F621773073F
:1044A0008407BA0720F0621B730B840BBA0BEE1F54
:1044B00088F7E0950895E89409C097FB3EF490953D
:1044C0008095709561957F4F8F4F9F4F9923A9F0ED
:1044D000F92F96E9BB279395F6958795779567957C
:1044E000B795F111F8CFFAF4BB0F11F460FF1BC0C0
:1044F0006F5F7F4F8F4F9F4F16C0882311F096E953
:1045000011C0772321F09EE8872F762F05C0662300
:1045100071F096E8862F70E060E02AF09A95660FB9
:10452000771F881FDAF7880F9695879597F9089572
:1045300097F99F6780E870E060E008959FEF80EC56
:10454000089500240A9416161706180609060895F9
:1045500000240A9412161306140605060895EECFD9
:1045600050D0E8F3E894E0E0BB279F57F0F02AED45
:104570003FE049EC06C0EE0FBB0F661F771F881F98
:1045800028F0B23A62077307840728F0B25A620B28
:10459000730B840BE3959A9572F7803830F49A95F3
:1045A000BB0F661F771F881FD2F79048D6C0092E11
:1045B0000394000C11F4882352F0BB0F40F4BF2B7E
:1045C00011F460FF04C06F5F7F4F8F4F9F4F0895BE
:1045D000EF93E0FF06C0A2EA2AED3FE049EC5FEB73
:1045E000ACDEE5DF0F90039401FC9058ECE8F0E0BE
:1045F000C0C057FD9058440F551F59F05F3F71F0F0
:104600004795880F97FB991F61F09F3F79F0879539
:104610000895121613061406551FF2CF4695F1DFC2
:1046200008C0161617061806991FF1CF8695710552
:10463000610508940895E894BB2766277727CB0186
:1046400097F908950BD0B3CF7CDF28F081DF18F005
:10465000952309F06DCF72CF1124EECFCADFA0F3FE
:10466000959FD1F3950F50E0551F629FF001729F07
:10467000BB27F00DB11D639FAA27F00DB11DAA1F26
:10468000649F6627B00DA11D661F829F2227B00D73
:10469000A11D621F739FB00DA11D621F839FA00DFE
:1046A000611D221F749F3327A00D611D231F849F4E
:1046B000600D211D822F762F6A2F11249F575040A5
:1046C0008AF0E1F088234AF0EE0FFF1FBB1F661F40
:1046D000771F881F91505040A9F79E3F510570F0F9
:1046E00027CFAACF5F3FECF3983EDCF38695779512
:1046F0006795B795F795E7959F5FC1F7FE2B880FF4
:10470000911D9695879597F908959F9329DF0F90AE
:1047100007FCEE5F5DCFDF93D92F22DFE695D795BB
:104720002AED3FE049E45FE3B33A62077307840789
:104730009507D7952AF0A2EA49EC9068FEDD37DFAD
:10474000EAEAF0E016D0DD0F0BF024D0DD0F0BF419
:104750009058DF9108959F3F31F0915020F4879554
:1047600077956795B795880F911D9695879597F9D9
:1047700008959F938F937F936F93FF93EF939B0184
:10478000AC0160DFEF91FF910CD02F913F914F91E1
:104790005F9158CF9B01AC0160E070E080E89FE33F
:1047A00022CEDF93CF931F930F93FF92EF92DF926E
:1047B0007B018C01689405C0DA2EEF014FDFFE010A
:1047C000E894A5912591359145915591AEF3EF016E
:1047D000B4DDFE019701A801DA9479F7DF90EF903C
:1047E000FF900F911F91CF91DF910895991B79E070
:1047F00004C0991F961708F0961B881F7A95C9F771
:104800008095089597FB092E07260AD077FD04D0DE
:104810000CD006D000201AF4709561957F4F089552
:10482000F6F7909581959F4F0895AA1BBB1B51E108
:1048300007C0AA1FBB1FA617B70710F0A61BB70B10
:10484000881F991F5A95A9F780959095BC01CD01B5
:104850000895FB01DC0102C001900D9241505040CF
:10486000D8F70895DC0101C06D9341505040E0F746
:104870000895FB01DC014150504048F001900D9239
:104880000020C9F701C01D9241505040E0F7089543
:04489000F894FFCFCA
:0E48940049444C450001010101010109FFFFEB
:00000001FF
